{
  "contractName": "Archives",
  "abi": [
    {
      "constant": true,
      "inputs": [
        {
          "name": "_operator",
          "type": "address"
        },
        {
          "name": "_role",
          "type": "string"
        }
      ],
      "name": "checkRole",
      "outputs": [],
      "payable": false,
      "stateMutability": "view",
      "type": "function"
    },
    {
      "constant": true,
      "inputs": [],
      "name": "ROLE_WHITELISTED",
      "outputs": [
        {
          "name": "",
          "type": "string"
        }
      ],
      "payable": false,
      "stateMutability": "view",
      "type": "function"
    },
    {
      "constant": true,
      "inputs": [
        {
          "name": "_operator",
          "type": "address"
        },
        {
          "name": "_role",
          "type": "string"
        }
      ],
      "name": "hasRole",
      "outputs": [
        {
          "name": "",
          "type": "bool"
        }
      ],
      "payable": false,
      "stateMutability": "view",
      "type": "function"
    },
    {
      "constant": false,
      "inputs": [
        {
          "name": "_operators",
          "type": "address[]"
        }
      ],
      "name": "removeAddressesFromWhitelist",
      "outputs": [],
      "payable": false,
      "stateMutability": "nonpayable",
      "type": "function"
    },
    {
      "constant": false,
      "inputs": [
        {
          "name": "_operator",
          "type": "address"
        }
      ],
      "name": "removeAddressFromWhitelist",
      "outputs": [],
      "payable": false,
      "stateMutability": "nonpayable",
      "type": "function"
    },
    {
      "constant": true,
      "inputs": [
        {
          "name": "",
          "type": "uint256"
        }
      ],
      "name": "artworks",
      "outputs": [
        {
          "name": "id",
          "type": "uint256"
        },
        {
          "name": "author",
          "type": "address"
        },
        {
          "name": "name",
          "type": "string"
        },
        {
          "name": "descriptionHash",
          "type": "string"
        },
        {
          "name": "dataHash",
          "type": "string"
        },
        {
          "name": "validation",
          "type": "bool"
        },
        {
          "name": "votesNum",
          "type": "uint256"
        }
      ],
      "payable": false,
      "stateMutability": "view",
      "type": "function"
    },
    {
      "constant": true,
      "inputs": [
        {
          "name": "",
          "type": "uint256"
        }
      ],
      "name": "artworkCheckersAccount",
      "outputs": [
        {
          "name": "",
          "type": "address"
        }
      ],
      "payable": false,
      "stateMutability": "view",
      "type": "function"
    },
    {
      "constant": false,
      "inputs": [],
      "name": "renounceOwnership",
      "outputs": [],
      "payable": false,
      "stateMutability": "nonpayable",
      "type": "function"
    },
    {
      "constant": false,
      "inputs": [
        {
          "name": "_operator",
          "type": "address"
        }
      ],
      "name": "addAddressToWhitelist",
      "outputs": [],
      "payable": false,
      "stateMutability": "nonpayable",
      "type": "function"
    },
    {
      "constant": true,
      "inputs": [],
      "name": "owner",
      "outputs": [
        {
          "name": "",
          "type": "address"
        }
      ],
      "payable": false,
      "stateMutability": "view",
      "type": "function"
    },
    {
      "constant": true,
      "inputs": [
        {
          "name": "_operator",
          "type": "address"
        }
      ],
      "name": "whitelist",
      "outputs": [
        {
          "name": "",
          "type": "bool"
        }
      ],
      "payable": false,
      "stateMutability": "view",
      "type": "function"
    },
    {
      "constant": false,
      "inputs": [
        {
          "name": "_operators",
          "type": "address[]"
        }
      ],
      "name": "addAddressesToWhitelist",
      "outputs": [],
      "payable": false,
      "stateMutability": "nonpayable",
      "type": "function"
    },
    {
      "constant": false,
      "inputs": [
        {
          "name": "_newOwner",
          "type": "address"
        }
      ],
      "name": "transferOwnership",
      "outputs": [],
      "payable": false,
      "stateMutability": "nonpayable",
      "type": "function"
    },
    {
      "inputs": [],
      "payable": false,
      "stateMutability": "nonpayable",
      "type": "constructor"
    },
    {
      "anonymous": false,
      "inputs": [
        {
          "indexed": true,
          "name": "_id",
          "type": "uint256"
        },
        {
          "indexed": true,
          "name": "_author",
          "type": "address"
        },
        {
          "indexed": false,
          "name": "_name",
          "type": "string"
        },
        {
          "indexed": false,
          "name": "_descriptionHash",
          "type": "string"
        },
        {
          "indexed": false,
          "name": "_data",
          "type": "string"
        },
        {
          "indexed": false,
          "name": "validation",
          "type": "bool"
        }
      ],
      "name": "LogSendArtw",
      "type": "event"
    },
    {
      "anonymous": false,
      "inputs": [
        {
          "indexed": true,
          "name": "_id",
          "type": "uint256"
        },
        {
          "indexed": true,
          "name": "_author",
          "type": "address"
        }
      ],
      "name": "ValidateArtw",
      "type": "event"
    },
    {
      "anonymous": false,
      "inputs": [
        {
          "indexed": true,
          "name": "_id",
          "type": "uint256"
        },
        {
          "indexed": true,
          "name": "_author",
          "type": "address"
        }
      ],
      "name": "artworkModify",
      "type": "event"
    },
    {
      "anonymous": false,
      "inputs": [
        {
          "indexed": true,
          "name": "operator",
          "type": "address"
        },
        {
          "indexed": false,
          "name": "role",
          "type": "string"
        }
      ],
      "name": "RoleAdded",
      "type": "event"
    },
    {
      "anonymous": false,
      "inputs": [
        {
          "indexed": true,
          "name": "operator",
          "type": "address"
        },
        {
          "indexed": false,
          "name": "role",
          "type": "string"
        }
      ],
      "name": "RoleRemoved",
      "type": "event"
    },
    {
      "anonymous": false,
      "inputs": [
        {
          "indexed": true,
          "name": "previousOwner",
          "type": "address"
        }
      ],
      "name": "OwnershipRenounced",
      "type": "event"
    },
    {
      "anonymous": false,
      "inputs": [
        {
          "indexed": true,
          "name": "previousOwner",
          "type": "address"
        },
        {
          "indexed": true,
          "name": "newOwner",
          "type": "address"
        }
      ],
      "name": "OwnershipTransferred",
      "type": "event"
    },
    {
      "constant": false,
      "inputs": [
        {
          "name": "_name",
          "type": "string"
        },
        {
          "name": "_descriptionHash",
          "type": "string"
        },
        {
          "name": "_dataHash",
          "type": "string"
        }
      ],
      "name": "publishArtwork",
      "outputs": [],
      "payable": false,
      "stateMutability": "nonpayable",
      "type": "function"
    },
    {
      "constant": false,
      "inputs": [
        {
          "name": "_id",
          "type": "uint256"
        },
        {
          "name": "_author",
          "type": "address"
        },
        {
          "name": "_name",
          "type": "string"
        },
        {
          "name": "_descriptionHash",
          "type": "string"
        },
        {
          "name": "_dataHash",
          "type": "string"
        },
        {
          "name": "_validation",
          "type": "bool"
        },
        {
          "name": "_votesNum",
          "type": "uint256"
        }
      ],
      "name": "addArtwork",
      "outputs": [],
      "payable": false,
      "stateMutability": "nonpayable",
      "type": "function"
    },
    {
      "constant": true,
      "inputs": [],
      "name": "getNumberOfArtworks",
      "outputs": [
        {
          "name": "",
          "type": "uint256"
        }
      ],
      "payable": false,
      "stateMutability": "view",
      "type": "function"
    },
    {
      "constant": true,
      "inputs": [],
      "name": "getArtworks",
      "outputs": [
        {
          "name": "",
          "type": "uint256[]"
        }
      ],
      "payable": false,
      "stateMutability": "view",
      "type": "function"
    },
    {
      "constant": false,
      "inputs": [
        {
          "name": "_id",
          "type": "uint256"
        }
      ],
      "name": "approveArtwork",
      "outputs": [],
      "payable": false,
      "stateMutability": "nonpayable",
      "type": "function"
    },
    {
      "constant": false,
      "inputs": [
        {
          "name": "_id",
          "type": "uint256"
        },
        {
          "name": "_newDescriptionHash",
          "type": "string"
        }
      ],
      "name": "modifyArtworkDescription",
      "outputs": [],
      "payable": false,
      "stateMutability": "nonpayable",
      "type": "function"
    },
    {
      "constant": true,
      "inputs": [],
      "name": "quorum",
      "outputs": [
        {
          "name": "",
          "type": "uint256[]"
        },
        {
          "name": "",
          "type": "uint256"
        }
      ],
      "payable": false,
      "stateMutability": "view",
      "type": "function"
    }
  ],
  "bytecode": "0x60806040523480156200001157600080fd5b50336000806101000a81548173ffffffffffffffffffffffffffffffffffffffff021916908373ffffffffffffffffffffffffffffffffffffffff160217905550620001766001739fb867de1ed00990fcffefc7925846068561ef3c6040805190810160405280601d81526020017f4f7065726120642761727465206d696e6f726520617070726f76617461000000815250606060405190810160405280602e81526020017f516d52444b69564b61454678634561357a39686153316645685162517269715981526020017f674e6e4173486d67784d32646536000000000000000000000000000000000000815250606060405190810160405280602e81526020017f516d5646435445534269775045785342596b4135454b4c51314d48574b59473281526020017f55754853785a41576f51484c6845000000000000000000000000000000000000815250600160026200029f640100000000026401000000009004565b620002996002739fb867de1ed00990fcffefc7925846068561ef3c6040805190810160405280601581526020017f4f7065726120642761727465207363756c747572610000000000000000000000815250606060405190810160405280602e81526020017f516d52444b69564b61454678634561357a39686153316645685162517269715981526020017f674e6e4173486d67784d32646536000000000000000000000000000000000000815250606060405190810160405280602e81526020017f516d5646435445534269775045785342596b4135454b4c51314d48574b59473281526020017f55754853785a41576f51484c68450000000000000000000000000000000000008152506000806200029f640100000000026401000000009004565b620004a5565b60056000815480929190600101919050555060e0604051908101604052808881526020018773ffffffffffffffffffffffffffffffffffffffff1681526020018681526020018581526020018481526020018315158152602001828152506003600060055481526020019081526020016000206000820151816000015560208201518160010160006101000a81548173ffffffffffffffffffffffffffffffffffffffff021916908373ffffffffffffffffffffffffffffffffffffffff160217905550604082015181600201908051906020019062000381929190620003f6565b506060820151816003019080519060200190620003a0929190620003f6565b506080820151816004019080519060200190620003bf929190620003f6565b5060a08201518160050160006101000a81548160ff02191690831515021790555060c0820151816006015590505050505050505050565b828054600181600116156101000203166002900490600052602060002090601f016020900481019282601f106200043957805160ff19168380011785556200046a565b828001600101855582156200046a579182015b82811115620004695782518255916020019190600101906200044c565b5b5090506200047991906200047d565b5090565b620004a291905b808211156200049e57600081600090555060010162000484565b5090565b90565b61236280620004b56000396000f300608060405260043610610111576000357c0100000000000000000000000000000000000000000000000000000000900463ffffffff168062a71527146101165780630988ca8c146101825780630e7a440d1461020b5780631703a0181461023857806318b919e9146102ab578063217fe6c61461033b57806324953eaa146103dc578063286dd3f5146104425780634a7848c3146104855780634b6026731461057a5780635629005214610744578063715018a6146107b15780637b9417c8146107c8578063857029281461080b5780638da5cb5b146109405780639b19251a14610997578063e2ec6ec3146109f2578063efbda75214610a58578063f1e67a0214610a83578063f2fde38b14610af6575b600080fd5b34801561012257600080fd5b5061012b610b39565b6040518080602001828103825283818151815260200191508051906020019060200280838360005b8381101561016e578082015181840152602081019050610153565b505050509050019250505060405180910390f35b34801561018e57600080fd5b50610209600480360381019080803573ffffffffffffffffffffffffffffffffffffffff169060200190929190803590602001908201803590602001908080601f0160208091040260200160405190810160405280939291908181526020018383808284378201915050505050509192919290505050610c5e565b005b34801561021757600080fd5b5061023660048036038101908080359060200190929190505050610cdf565b005b34801561024457600080fd5b5061024d610ed6565b6040518080602001838152602001828103825284818151815260200191508051906020019060200280838360005b8381101561029657808201518184015260208101905061027b565b50505050905001935050505060405180910390f35b3480156102b757600080fd5b506102c0610f7c565b6040518080602001828103825283818151815260200191508051906020019080838360005b838110156103005780820151818401526020810190506102e5565b50505050905090810190601f16801561032d5780820380516001836020036101000a031916815260200191505b509250505060405180910390f35b34801561034757600080fd5b506103c2600480360381019080803573ffffffffffffffffffffffffffffffffffffffff169060200190929190803590602001908201803590602001908080601f0160208091040260200160405190810160405280939291908181526020018383808284378201915050505050509192919290505050610fb5565b604051808215151515815260200191505060405180910390f35b3480156103e857600080fd5b506104406004803603810190808035906020019082018035906020019080806020026020016040519081016040528093929190818152602001838360200280828437820191505050505050919291929050505061103c565b005b34801561044e57600080fd5b50610483600480360381019080803573ffffffffffffffffffffffffffffffffffffffff1690602001909291905050506110d8565b005b34801561049157600080fd5b50610578600480360381019080803590602001908201803590602001908080601f0160208091040260200160405190810160405280939291908181526020018383808284378201915050505050509192919290803590602001908201803590602001908080601f0160208091040260200160405190810160405280939291908181526020018383808284378201915050505050509192919290803590602001908201803590602001908080601f0160208091040260200160405190810160405280939291908181526020018383808284378201915050505050509192919290505050611175565b005b34801561058657600080fd5b506105a560048036038101908080359060200190929190505050611463565b604051808881526020018773ffffffffffffffffffffffffffffffffffffffff1673ffffffffffffffffffffffffffffffffffffffff16815260200180602001806020018060200186151515158152602001858152602001848103845289818151815260200191508051906020019080838360005b8381101561063557808201518184015260208101905061061a565b50505050905090810190601f1680156106625780820380516001836020036101000a031916815260200191505b50848103835288818151815260200191508051906020019080838360005b8381101561069b578082015181840152602081019050610680565b50505050905090810190601f1680156106c85780820380516001836020036101000a031916815260200191505b50848103825287818151815260200191508051906020019080838360005b838110156107015780820151818401526020810190506106e6565b50505050905090810190601f16801561072e5780820380516001836020036101000a031916815260200191505b509a505050505050505050505060405180910390f35b34801561075057600080fd5b5061076f6004803603810190808035906020019092919050505061169a565b604051808273ffffffffffffffffffffffffffffffffffffffff1673ffffffffffffffffffffffffffffffffffffffff16815260200191505060405180910390f35b3480156107bd57600080fd5b506107c66116d8565b005b3480156107d457600080fd5b50610809600480360381019080803573ffffffffffffffffffffffffffffffffffffffff1690602001909291905050506117da565b005b34801561081757600080fd5b5061093e60048036038101908080359060200190929190803573ffffffffffffffffffffffffffffffffffffffff169060200190929190803590602001908201803590602001908080601f0160208091040260200160405190810160405280939291908181526020018383808284378201915050505050509192919290803590602001908201803590602001908080601f0160208091040260200160405190810160405280939291908181526020018383808284378201915050505050509192919290803590602001908201803590602001908080601f0160208091040260200160405190810160405280939291908181526020018383808284378201915050505050509192919290803515159060200190929190803590602001909291905050506118f2565b005b34801561094c57600080fd5b50610955611a43565b604051808273ffffffffffffffffffffffffffffffffffffffff1673ffffffffffffffffffffffffffffffffffffffff16815260200191505060405180910390f35b3480156109a357600080fd5b506109d8600480360381019080803573ffffffffffffffffffffffffffffffffffffffff169060200190929190505050611a68565b604051808215151515815260200191505060405180910390f35b3480156109fe57600080fd5b50610a5660048036038101908080359060200190820180359060200190808060200260200160405190810160405280939291908181526020018383602002808284378201915050505050509192919290505050611ab0565b005b348015610a6457600080fd5b50610a6d611b4c565b6040518082815260200191505060405180910390f35b348015610a8f57600080fd5b50610af460048036038101908080359060200190929190803590602001908201803590602001908080601f0160208091040260200160405190810160405280939291908181526020018383808284378201915050505050509192919290505050611b56565b005b348015610b0257600080fd5b50610b37600480360381019080803573ffffffffffffffffffffffffffffffffffffffff169060200190929190505050611c84565b005b60608060008060606000600554604051908082528060200260200182016040528015610b745781602001602082028038833980820191505090505b50945060009350600192505b60055483111515610bd35760036000848152602001908152602001600020600001548585815181101515610bb057fe5b906020019060200201818152505083806001019450508280600101935050610b80565b83604051908082528060200260200182016040528015610c025781602001602082028038833980820191505090505b509150600090505b83811015610c53578481815181101515610c2057fe5b906020019060200201518282815181101515610c3857fe5b90602001906020020181815250508080600101915050610c0a565b819550505050505090565b610cdb826001836040518082805190602001908083835b602083101515610c9a5780518252602082019150602081019050602083039250610c75565b6001836020036101000a0380198251168184511680821785525050505050509050019150509081526020016040518091039020611ceb90919063ffffffff16565b5050565b60008033610d22816040805190810160405280600e81526020017f617274776f726b436865636b6572000000000000000000000000000000000000815250610c5e565b83600015156003600083815260200190815260200160002060050160009054906101000a900460ff161515141515610d5957600080fd5b8060055410151515610d6a57600080fd5b600460003373ffffffffffffffffffffffffffffffffffffffff1673ffffffffffffffffffffffffffffffffffffffff1681526020019081526020016000209350600092505b600460003373ffffffffffffffffffffffffffffffffffffffff1673ffffffffffffffffffffffffffffffffffffffff16815260200190815260200160002060000180549050831015610e725784600460003373ffffffffffffffffffffffffffffffffffffffff1673ffffffffffffffffffffffffffffffffffffffff16815260200190815260200160002060000184815481101515610e4d57fe5b906000526020600020015414151515610e6557600080fd5b8280600101935050610db0565b836000018590806001815401808255809150509060018203906000526020600020016000909192909190915055506003600086815260200190815260200160002060060160008154809291906001019190505550610ecf85611d04565b5050505050565b60606000600460003373ffffffffffffffffffffffffffffffffffffffff1673ffffffffffffffffffffffffffffffffffffffff16815260200190815260200160002060000160028054905081805480602002602001604051908101604052809291908181526020018280548015610f6d57602002820191906000526020600020905b815481526020019060010190808311610f59575b50505050509150915091509091565b6040805190810160405280600e81526020017f617274776f726b436865636b657200000000000000000000000000000000000081525081565b6000611034836001846040518082805190602001908083835b602083101515610ff35780518252602082019150602081019050602083039250610fce565b6001836020036101000a0380198251168184511680821785525050505050509050019150509081526020016040518091039020611d9a90919063ffffffff16565b905092915050565b60008060009054906101000a900473ffffffffffffffffffffffffffffffffffffffff1673ffffffffffffffffffffffffffffffffffffffff163373ffffffffffffffffffffffffffffffffffffffff1614151561109957600080fd5b600090505b81518110156110d4576110c782828151811015156110b857fe5b906020019060200201516110d8565b808060010191505061109e565b5050565b6000809054906101000a900473ffffffffffffffffffffffffffffffffffffffff1673ffffffffffffffffffffffffffffffffffffffff163373ffffffffffffffffffffffffffffffffffffffff1614151561113357600080fd5b611172816040805190810160405280600e81526020017f617274776f726b436865636b6572000000000000000000000000000000000000815250611df3565b50565b60056000815480929190600101919050555060e06040519081016040528060055481526020013373ffffffffffffffffffffffffffffffffffffffff16815260200184815260200183815260200182815260200160001515815260200160008152506003600060055481526020019081526020016000206000820151816000015560208201518160010160006101000a81548173ffffffffffffffffffffffffffffffffffffffff021916908373ffffffffffffffffffffffffffffffffffffffff1602179055506040820151816002019080519060200190611259929190612211565b506060820151816003019080519060200190611276929190612211565b506080820151816004019080519060200190611293929190612211565b5060a08201518160050160006101000a81548160ff02191690831515021790555060c082015181600601559050503373ffffffffffffffffffffffffffffffffffffffff166005547f69b212700b269b6768d30995de959e9b0d7d8d9f709f8f7a83c0221dabfb348585858560006040518080602001806020018060200185151515158152602001848103845288818151815260200191508051906020019080838360005b83811015611353578082015181840152602081019050611338565b50505050905090810190601f1680156113805780820380516001836020036101000a031916815260200191505b50848103835287818151815260200191508051906020019080838360005b838110156113b957808201518184015260208101905061139e565b50505050905090810190601f1680156113e65780820380516001836020036101000a031916815260200191505b50848103825286818151815260200191508051906020019080838360005b8381101561141f578082015181840152602081019050611404565b50505050905090810190601f16801561144c5780820380516001836020036101000a031916815260200191505b5097505050505050505060405180910390a3505050565b60036020528060005260406000206000915090508060000154908060010160009054906101000a900473ffffffffffffffffffffffffffffffffffffffff1690806002018054600181600116156101000203166002900480601f01602080910402602001604051908101604052809291908181526020018280546001816001161561010002031660029004801561153b5780601f106115105761010080835404028352916020019161153b565b820191906000526020600020905b81548152906001019060200180831161151e57829003601f168201915b505050505090806003018054600181600116156101000203166002900480601f0160208091040260200160405190810160405280929190818152602001828054600181600116156101000203166002900480156115d95780601f106115ae576101008083540402835291602001916115d9565b820191906000526020600020905b8154815290600101906020018083116115bc57829003601f168201915b505050505090806004018054600181600116156101000203166002900480601f0160208091040260200160405190810160405280929190818152602001828054600181600116156101000203166002900480156116775780601f1061164c57610100808354040283529160200191611677565b820191906000526020600020905b81548152906001019060200180831161165a57829003601f168201915b5050505050908060050160009054906101000a900460ff16908060060154905087565b6002818154811015156116a957fe5b906000526020600020016000915054906101000a900473ffffffffffffffffffffffffffffffffffffffff1681565b6000809054906101000a900473ffffffffffffffffffffffffffffffffffffffff1673ffffffffffffffffffffffffffffffffffffffff163373ffffffffffffffffffffffffffffffffffffffff1614151561173357600080fd5b6000809054906101000a900473ffffffffffffffffffffffffffffffffffffffff1673ffffffffffffffffffffffffffffffffffffffff167ff8df31144d9c2f0f6b59d69b8b98abd5459d07f2742c4df920b25aae33c6482060405160405180910390a260008060006101000a81548173ffffffffffffffffffffffffffffffffffffffff021916908373ffffffffffffffffffffffffffffffffffffffff160217905550565b6000809054906101000a900473ffffffffffffffffffffffffffffffffffffffff1673ffffffffffffffffffffffffffffffffffffffff163373ffffffffffffffffffffffffffffffffffffffff1614151561183557600080fd5b61183e81611a68565b15151561184a57600080fd5b60028190806001815401808255809150509060018203906000526020600020016000909192909190916101000a81548173ffffffffffffffffffffffffffffffffffffffff021916908373ffffffffffffffffffffffffffffffffffffffff160217905550506118ef816040805190810160405280600e81526020017f617274776f726b436865636b6572000000000000000000000000000000000000815250611f27565b50565b60056000815480929190600101919050555060e0604051908101604052808881526020018773ffffffffffffffffffffffffffffffffffffffff1681526020018681526020018581526020018481526020018315158152602001828152506003600060055481526020019081526020016000206000820151816000015560208201518160010160006101000a81548173ffffffffffffffffffffffffffffffffffffffff021916908373ffffffffffffffffffffffffffffffffffffffff16021790555060408201518160020190805190602001906119d2929190612211565b5060608201518160030190805190602001906119ef929190612211565b506080820151816004019080519060200190611a0c929190612211565b5060a08201518160050160006101000a81548160ff02191690831515021790555060c0820151816006015590505050505050505050565b6000809054906101000a900473ffffffffffffffffffffffffffffffffffffffff1681565b6000611aa9826040805190810160405280600e81526020017f617274776f726b436865636b6572000000000000000000000000000000000000815250610fb5565b9050919050565b60008060009054906101000a900473ffffffffffffffffffffffffffffffffffffffff1673ffffffffffffffffffffffffffffffffffffffff163373ffffffffffffffffffffffffffffffffffffffff16141515611b0d57600080fd5b600090505b8151811015611b4857611b3b8282815181101515611b2c57fe5b906020019060200201516117da565b8080600101915050611b12565b5050565b6000600554905090565b6003600083815260200190815260200160002060010160009054906101000a900473ffffffffffffffffffffffffffffffffffffffff1673ffffffffffffffffffffffffffffffffffffffff163373ffffffffffffffffffffffffffffffffffffffff16141515611bc657600080fd5b80600360008481526020019081526020016000206003019080519060200190611bf0929190612291565b506000600360008481526020019081526020016000206006018190555060006003600084815260200190815260200160002060050160006101000a81548160ff0219169083151502179055503373ffffffffffffffffffffffffffffffffffffffff16827f315ab16fcbe851f8f76c766cba709358ebe67b880814599c362a270ff6f482d660405160405180910390a35050565b6000809054906101000a900473ffffffffffffffffffffffffffffffffffffffff1673ffffffffffffffffffffffffffffffffffffffff163373ffffffffffffffffffffffffffffffffffffffff16141515611cdf57600080fd5b611ce88161205b565b50565b611cf58282611d9a565b1515611d0057600080fd5b5050565b600260036000838152602001908152602001600020600601541115611d975760016003600083815260200190815260200160002060050160006101000a81548160ff0219169083151502179055503373ffffffffffffffffffffffffffffffffffffffff16817f0ad40c3a33907c1c9fd5d63f76b8299ddcb956513ff10f6d08280cc9c176bce960405160405180910390a35b50565b60008260000160008373ffffffffffffffffffffffffffffffffffffffff1673ffffffffffffffffffffffffffffffffffffffff16815260200190815260200160002060009054906101000a900460ff16905092915050565b611e70826001836040518082805190602001908083835b602083101515611e2f5780518252602082019150602081019050602083039250611e0a565b6001836020036101000a038019825116818451168082178552505050505050905001915050908152602001604051809103902061215590919063ffffffff16565b8173ffffffffffffffffffffffffffffffffffffffff167fd211483f91fc6eff862467f8de606587a30c8fc9981056f051b897a418df803a826040518080602001828103825283818151815260200191508051906020019080838360005b83811015611ee9578082015181840152602081019050611ece565b50505050905090810190601f168015611f165780820380516001836020036101000a031916815260200191505b509250505060405180910390a25050565b611fa4826001836040518082805190602001908083835b602083101515611f635780518252602082019150602081019050602083039250611f3e565b6001836020036101000a03801982511681845116808217855250505050505090500191505090815260200160405180910390206121b390919063ffffffff16565b8173ffffffffffffffffffffffffffffffffffffffff167fbfec83d64eaa953f2708271a023ab9ee82057f8f3578d548c1a4ba0b5b700489826040518080602001828103825283818151815260200191508051906020019080838360005b8381101561201d578082015181840152602081019050612002565b50505050905090810190601f16801561204a5780820380516001836020036101000a031916815260200191505b509250505060405180910390a25050565b600073ffffffffffffffffffffffffffffffffffffffff168173ffffffffffffffffffffffffffffffffffffffff161415151561209757600080fd5b8073ffffffffffffffffffffffffffffffffffffffff166000809054906101000a900473ffffffffffffffffffffffffffffffffffffffff1673ffffffffffffffffffffffffffffffffffffffff167f8be0079c531659141344cd1fd0a4f28419497f9722a3daafe3b4186f6b6457e060405160405180910390a3806000806101000a81548173ffffffffffffffffffffffffffffffffffffffff021916908373ffffffffffffffffffffffffffffffffffffffff16021790555050565b60008260000160008373ffffffffffffffffffffffffffffffffffffffff1673ffffffffffffffffffffffffffffffffffffffff16815260200190815260200160002060006101000a81548160ff0219169083151502179055505050565b60018260000160008373ffffffffffffffffffffffffffffffffffffffff1673ffffffffffffffffffffffffffffffffffffffff16815260200190815260200160002060006101000a81548160ff0219169083151502179055505050565b828054600181600116156101000203166002900490600052602060002090601f016020900481019282601f1061225257805160ff1916838001178555612280565b82800160010185558215612280579182015b8281111561227f578251825591602001919060010190612264565b5b50905061228d9190612311565b5090565b828054600181600116156101000203166002900490600052602060002090601f016020900481019282601f106122d257805160ff1916838001178555612300565b82800160010185558215612300579182015b828111156122ff5782518255916020019190600101906122e4565b5b50905061230d9190612311565b5090565b61233391905b8082111561232f576000816000905550600101612317565b5090565b905600a165627a7a723058207ed87a938bd67dee0aa6ed5201edaff5e9d24e6751cb5cc51c5399fc334f98be0029",
  "source": "pragma solidity ^0.4.24;\r\n\r\nimport \"./Whitelist.sol\";\r\n//Top level contract inherits the implementation of \"user permissions\"\r\ncontract Archives is Whitelist {\r\n\r\n    //Struct data type containg basic artwork proprieties to be stored in contracts\r\n    struct Artwork {\r\n        uint id; //unique identifier\r\n        address author; //identifies who inserts the Artwork\r\n        string name;\r\n        string descriptionHash; //short Artwork descriptionHash (may not be necessary, depends on the final encoding tech)\r\n        string dataHash; //stores the hash generated by IPFS to retrieve all the information about the Artwork\r\n        bool validation; //indicates if the Artwork is approved by given quorum of artworkCheckers\r\n        uint votesNum; //number of votes casted on this particular artwork\r\n    }\r\n    //Struct to store an array of votes made by artworkCheckers\r\n    struct VoteRegister {\r\n        uint[] myVotes; // this array stores alle the ids that receive a vote from a certain address, referenced in mapping \r\n    }\r\n\r\n    //STATE VARIABLES\r\n    //Maps a reference by \"id\" to the Artwork struct\r\n    mapping (uint => Artwork) public artworks; //automatically sets a getter\r\n    //Maps a reference by \"address\" to the VoteRegister struct\r\n    mapping (address => VoteRegister) validators;\r\n    //stores the total number of works submitted\r\n    uint artworkCounter;\r\n\r\n    //EVENTS\r\n    //An Artwork has been published log\r\n    event LogSendArtw(\r\n        uint indexed _id,\r\n        address indexed _author,\r\n        string _name,\r\n        string _descriptionHash,\r\n        string _data,\r\n        bool validation\r\n    );\r\n    //An Artwork has been validated log\r\n    event ValidateArtw(\r\n        uint indexed _id,\r\n        address indexed _author\r\n    );\r\n\r\n    event artworkModify(\r\n        uint indexed _id,\r\n        address indexed _author\r\n    );\r\n\r\n    //Modifiers\r\n    //Checks if the artwork has not yet been validate, if it has there is no point on voting that id\r\n    modifier checkValidation(uint _id) {\r\n        require(artworks[_id].validation == false); //check if the artwork is not already \"valid\"\r\n        require(artworkCounter >= _id); //doesn't allow to vote on non existent Artwork ids, also tested for negatives\r\n        _;\r\n    }\r\n\r\n    //publish an artwork (main form)\r\n    function publishArtwork(string _name, string _descriptionHash, string _dataHash) public {\r\n        //new artw\r\n        artworkCounter++;\r\n        artworks[artworkCounter] = Artwork(\r\n            artworkCounter,\r\n            msg.sender,\r\n            _name,\r\n            _descriptionHash,\r\n            _dataHash,\r\n            false,\r\n            0\r\n        );\r\n\r\n        emit LogSendArtw(artworkCounter, msg.sender, _name, _descriptionHash, _dataHash, false);\r\n    }\r\n\r\n    //adding examples articles when deploying contract, just an example \r\n    //can be extended to insert inital dataset\r\n    constructor() public  {\r\n        addArtwork(1, 0x9Fb867de1eD00990FCFFefC7925846068561ef3C, \"Opera d'arte minore approvata\", \"QmRDKiVKaEFxcEa5z9haS1fEhQbQriqYgNnAsHmgxM2de6\", \"QmVFCTESBiwPExSBYkA5EKLQ1MHWKYG2UuHSxZAWoQHLhE\", true, 2);\r\n        addArtwork(2, 0x9Fb867de1eD00990FCFFefC7925846068561ef3C, \"Opera d'arte scultura\", \"QmRDKiVKaEFxcEa5z9haS1fEhQbQriqYgNnAsHmgxM2de6\", \"QmVFCTESBiwPExSBYkA5EKLQ1MHWKYG2UuHSxZAWoQHLhE\", false, 0);\r\n    }\r\n    //testing artworkchecker permissions (not relevant)\r\n    /*function test() onlyIfWhitelisted(msg.sender) public {\r\n        addArtwork(3, 0x9Fb867de1eD00990FCFFefC7925846068561ef3C, \"esempio3\", \"descrizione esempio 3\", \"QmVFCTESBiwPExSBYkA5EKLQ1MHWKYG2UuHSxZAWoQHLhE\", true);\r\n    }*/\r\n    //manual artwork adding for testing purposes - Just for tests and current constructor to be removed!\r\n    function addArtwork(uint _id, address _author, string _name, string _descriptionHash, string _dataHash, bool _validation, uint _votesNum) public {\r\n        artworkCounter++;\r\n        artworks[artworkCounter] = Artwork (\r\n            _id,\r\n            _author,\r\n            _name,\r\n            _descriptionHash,\r\n            _dataHash,\r\n            _validation,\r\n            _votesNum\r\n        );\r\n    }\r\n\r\n    //fetch the number of artworks in the contract\r\n    function getNumberOfArtworks() public view returns(uint) {\r\n        return artworkCounter;\r\n    }\r\n    //display all artworks stored in blockchain\r\n    function getArtworks() public view returns(uint[]) {\r\n        //prepare output array, it cannot contain more artworks than we have in the contract\r\n        uint[] memory artwIds = new uint[](artworkCounter);\r\n        uint numberOfArtw = 0;\r\n        //iterate over artworks\r\n        for(uint i = 1; i <= artworkCounter; i++) {\r\n            artwIds[numberOfArtw] = artworks[i].id;\r\n            numberOfArtw++;\r\n        }\r\n        //copy the artworks Ids array into smaller displayArt array\r\n        uint[] memory displayArt = new uint[](numberOfArtw);\r\n        for(uint j = 0; j < numberOfArtw; j++) {\r\n            displayArt[j] = artwIds[j];\r\n        }\r\n        return displayArt;\r\n    }\r\n    //artwork checkers can vote on artwork propriety \"votesNum\" and store their votes in storage\r\n    function approveArtwork(uint _id) onlyIfWhitelisted(msg.sender) checkValidation(_id) public {\r\n        VoteRegister storage validator = validators[msg.sender];\r\n        for (uint i = 0; i< validators[msg.sender].myVotes.length;i++){\r\n            require(!(validators[msg.sender].myVotes[i] == _id));\r\n        }\r\n        validator.myVotes.push(_id);\r\n        artworks[_id].votesNum++;\r\n        completeValidation(_id);\r\n    }\r\n    //checks if the \"quorum\" number has been met, static example of \"2\", can be e.g 1/3 of total artworkCheckers\r\n    function completeValidation(uint _id) internal {\r\n        if (artworks[_id].votesNum > 2 ) {\r\n            artworks[_id].validation = true;\r\n            emit ValidateArtw(_id, msg.sender);\r\n        }\r\n    }\r\n    \r\n    function modifyArtworkDescription (uint _id, string _newDescriptionHash) public {\r\n        require(msg.sender == artworks[_id].author);\r\n        artworks[_id].descriptionHash = _newDescriptionHash;\r\n        artworks[_id].votesNum = 0; \r\n        artworks[_id].validation = false;\r\n        emit artworkModify(_id, msg.sender);\r\n    }\r\n\r\n    //returns votes made by given artworkChecker and shows the length of array containg all artworkCheckers\r\n    //for debug purposes\r\n    function quorum() view public returns (uint[], uint) {\r\n        return (\r\n            validators[msg.sender].myVotes,\r\n            artworkCheckersAccount.length\r\n            );\r\n    }\r\n}",
  "sourcePath": "D:\\Blockchain projects\\digitalArchivesProject\\contracts\\Archives.sol",
  "compiler": {
    "name": "solc",
    "version": "0.4.24+commit.e67f0147.Emscripten.clang"
  },
  "schemaVersion": "2.0.1",
  "updatedAt": "2018-10-25T15:26:23.968Z"
}