{
  "contractName": "Archives",
  "abi": [
    {
      "constant": true,
      "inputs": [
        {
          "name": "_operator",
          "type": "address"
        },
        {
          "name": "_role",
          "type": "string"
        }
      ],
      "name": "checkRole",
      "outputs": [],
      "payable": false,
      "stateMutability": "view",
      "type": "function"
    },
    {
      "constant": true,
      "inputs": [],
      "name": "ROLE_WHITELISTED",
      "outputs": [
        {
          "name": "",
          "type": "string"
        }
      ],
      "payable": false,
      "stateMutability": "view",
      "type": "function"
    },
    {
      "constant": true,
      "inputs": [
        {
          "name": "_operator",
          "type": "address"
        },
        {
          "name": "_role",
          "type": "string"
        }
      ],
      "name": "hasRole",
      "outputs": [
        {
          "name": "",
          "type": "bool"
        }
      ],
      "payable": false,
      "stateMutability": "view",
      "type": "function"
    },
    {
      "constant": false,
      "inputs": [
        {
          "name": "_operators",
          "type": "address[]"
        }
      ],
      "name": "removeAddressesFromWhitelist",
      "outputs": [],
      "payable": false,
      "stateMutability": "nonpayable",
      "type": "function"
    },
    {
      "constant": false,
      "inputs": [
        {
          "name": "_operator",
          "type": "address"
        }
      ],
      "name": "removeAddressFromWhitelist",
      "outputs": [],
      "payable": false,
      "stateMutability": "nonpayable",
      "type": "function"
    },
    {
      "constant": true,
      "inputs": [
        {
          "name": "",
          "type": "uint256"
        }
      ],
      "name": "artworks",
      "outputs": [
        {
          "name": "id",
          "type": "uint256"
        },
        {
          "name": "author",
          "type": "address"
        },
        {
          "name": "name",
          "type": "string"
        },
        {
          "name": "descriptionHash",
          "type": "string"
        },
        {
          "name": "dataHash",
          "type": "string"
        },
        {
          "name": "validation",
          "type": "bool"
        },
        {
          "name": "votesNum",
          "type": "uint256"
        }
      ],
      "payable": false,
      "stateMutability": "view",
      "type": "function"
    },
    {
      "constant": true,
      "inputs": [
        {
          "name": "",
          "type": "uint256"
        }
      ],
      "name": "artworkCheckersAccount",
      "outputs": [
        {
          "name": "",
          "type": "address"
        }
      ],
      "payable": false,
      "stateMutability": "view",
      "type": "function"
    },
    {
      "constant": false,
      "inputs": [],
      "name": "renounceOwnership",
      "outputs": [],
      "payable": false,
      "stateMutability": "nonpayable",
      "type": "function"
    },
    {
      "constant": false,
      "inputs": [
        {
          "name": "_operator",
          "type": "address"
        }
      ],
      "name": "addAddressToWhitelist",
      "outputs": [],
      "payable": false,
      "stateMutability": "nonpayable",
      "type": "function"
    },
    {
      "constant": true,
      "inputs": [],
      "name": "owner",
      "outputs": [
        {
          "name": "",
          "type": "address"
        }
      ],
      "payable": false,
      "stateMutability": "view",
      "type": "function"
    },
    {
      "constant": true,
      "inputs": [
        {
          "name": "_operator",
          "type": "address"
        }
      ],
      "name": "whitelist",
      "outputs": [
        {
          "name": "",
          "type": "bool"
        }
      ],
      "payable": false,
      "stateMutability": "view",
      "type": "function"
    },
    {
      "constant": false,
      "inputs": [
        {
          "name": "_operators",
          "type": "address[]"
        }
      ],
      "name": "addAddressesToWhitelist",
      "outputs": [],
      "payable": false,
      "stateMutability": "nonpayable",
      "type": "function"
    },
    {
      "constant": false,
      "inputs": [
        {
          "name": "_newOwner",
          "type": "address"
        }
      ],
      "name": "transferOwnership",
      "outputs": [],
      "payable": false,
      "stateMutability": "nonpayable",
      "type": "function"
    },
    {
      "inputs": [],
      "payable": false,
      "stateMutability": "nonpayable",
      "type": "constructor"
    },
    {
      "anonymous": false,
      "inputs": [
        {
          "indexed": true,
          "name": "_id",
          "type": "uint256"
        },
        {
          "indexed": true,
          "name": "_author",
          "type": "address"
        },
        {
          "indexed": false,
          "name": "_name",
          "type": "string"
        },
        {
          "indexed": false,
          "name": "_descriptionHash",
          "type": "string"
        },
        {
          "indexed": false,
          "name": "_data",
          "type": "string"
        },
        {
          "indexed": false,
          "name": "validation",
          "type": "bool"
        }
      ],
      "name": "LogSendArtw",
      "type": "event"
    },
    {
      "anonymous": false,
      "inputs": [
        {
          "indexed": true,
          "name": "_id",
          "type": "uint256"
        },
        {
          "indexed": true,
          "name": "_author",
          "type": "address"
        }
      ],
      "name": "ValidateArtw",
      "type": "event"
    },
    {
      "anonymous": false,
      "inputs": [
        {
          "indexed": true,
          "name": "operator",
          "type": "address"
        },
        {
          "indexed": false,
          "name": "role",
          "type": "string"
        }
      ],
      "name": "RoleAdded",
      "type": "event"
    },
    {
      "anonymous": false,
      "inputs": [
        {
          "indexed": true,
          "name": "operator",
          "type": "address"
        },
        {
          "indexed": false,
          "name": "role",
          "type": "string"
        }
      ],
      "name": "RoleRemoved",
      "type": "event"
    },
    {
      "anonymous": false,
      "inputs": [
        {
          "indexed": true,
          "name": "previousOwner",
          "type": "address"
        }
      ],
      "name": "OwnershipRenounced",
      "type": "event"
    },
    {
      "anonymous": false,
      "inputs": [
        {
          "indexed": true,
          "name": "previousOwner",
          "type": "address"
        },
        {
          "indexed": true,
          "name": "newOwner",
          "type": "address"
        }
      ],
      "name": "OwnershipTransferred",
      "type": "event"
    },
    {
      "constant": false,
      "inputs": [
        {
          "name": "_name",
          "type": "string"
        },
        {
          "name": "_descriptionHash",
          "type": "string"
        },
        {
          "name": "_dataHash",
          "type": "string"
        }
      ],
      "name": "publishArtwork",
      "outputs": [],
      "payable": false,
      "stateMutability": "nonpayable",
      "type": "function"
    },
    {
      "constant": false,
      "inputs": [
        {
          "name": "_id",
          "type": "uint256"
        },
        {
          "name": "_author",
          "type": "address"
        },
        {
          "name": "_name",
          "type": "string"
        },
        {
          "name": "_descriptionHash",
          "type": "string"
        },
        {
          "name": "_dataHash",
          "type": "string"
        },
        {
          "name": "_validation",
          "type": "bool"
        },
        {
          "name": "_votesNum",
          "type": "uint256"
        }
      ],
      "name": "addArtwork",
      "outputs": [],
      "payable": false,
      "stateMutability": "nonpayable",
      "type": "function"
    },
    {
      "constant": true,
      "inputs": [],
      "name": "getNumberOfArtworks",
      "outputs": [
        {
          "name": "",
          "type": "uint256"
        }
      ],
      "payable": false,
      "stateMutability": "view",
      "type": "function"
    },
    {
      "constant": true,
      "inputs": [],
      "name": "getArtworks",
      "outputs": [
        {
          "name": "",
          "type": "uint256[]"
        }
      ],
      "payable": false,
      "stateMutability": "view",
      "type": "function"
    },
    {
      "constant": false,
      "inputs": [
        {
          "name": "_id",
          "type": "uint256"
        }
      ],
      "name": "approveArtwork",
      "outputs": [],
      "payable": false,
      "stateMutability": "nonpayable",
      "type": "function"
    },
    {
      "constant": true,
      "inputs": [],
      "name": "quorum",
      "outputs": [
        {
          "name": "",
          "type": "uint256[]"
        },
        {
          "name": "",
          "type": "uint256"
        }
      ],
      "payable": false,
      "stateMutability": "view",
      "type": "function"
    }
  ],
  "bytecode": "0x60806040523480156200001157600080fd5b50336000806101000a81548173ffffffffffffffffffffffffffffffffffffffff021916908373ffffffffffffffffffffffffffffffffffffffff1602179055506200014e6001739fb867de1ed00990fcffefc7925846068561ef3c6040805190810160405280601581526020017f4f7065726120642761727465206d696e6f7265203100000000000000000000008152506040805190810160405280601681526020017f4465736372697a696f6e652064656c6c276f7065726100000000000000000000815250606060405190810160405280602e81526020017f516d5646435445534269775045785342596b4135454b4c51314d48574b59473281526020017f55754853785a41576f51484c684500000000000000000000000000000000000081525060008062000277640100000000026401000000009004565b620002716002739fb867de1ed00990fcffefc7925846068561ef3c6040805190810160405280601881526020017f496d6d6167696e65206372656174612064612054697a696f0000000000000000815250606060405190810160405280603581526020017f566f676c696f20707265736572766172652071756573746120696d6d6167696e81526020017f652073756c6c6120626c6f636b636861696e2e2e2e0000000000000000000000815250606060405190810160405280602e81526020017f516d5646435445534269775045785342596b4135454b4c51314d48574b59473281526020017f55754853785a41576f51484c684500000000000000000000000000000000000081525060008062000277640100000000026401000000009004565b6200047d565b60056000815480929190600101919050555060e0604051908101604052808881526020018773ffffffffffffffffffffffffffffffffffffffff1681526020018681526020018581526020018481526020018315158152602001828152506003600060055481526020019081526020016000206000820151816000015560208201518160010160006101000a81548173ffffffffffffffffffffffffffffffffffffffff021916908373ffffffffffffffffffffffffffffffffffffffff160217905550604082015181600201908051906020019062000359929190620003ce565b50606082015181600301908051906020019062000378929190620003ce565b50608082015181600401908051906020019062000397929190620003ce565b5060a08201518160050160006101000a81548160ff02191690831515021790555060c0820151816006015590505050505050505050565b828054600181600116156101000203166002900490600052602060002090601f016020900481019282601f106200041157805160ff191683800117855562000442565b8280016001018555821562000442579182015b828111156200044157825182559160200191906001019062000424565b5b50905062000451919062000455565b5090565b6200047a91905b80821115620004765760008160009055506001016200045c565b5090565b90565b612136806200048d6000396000f300608060405260043610610106576000357c0100000000000000000000000000000000000000000000000000000000900463ffffffff168062a715271461010b5780630988ca8c146101775780630e7a440d146102005780631703a0181461022d57806318b919e9146102a0578063217fe6c61461033057806324953eaa146103d1578063286dd3f5146104375780634a7848c31461047a5780634b6026731461056f5780635629005214610739578063715018a6146107a65780637b9417c8146107bd57806385702928146108005780638da5cb5b146109355780639b19251a1461098c578063e2ec6ec3146109e7578063efbda75214610a4d578063f2fde38b14610a78575b600080fd5b34801561011757600080fd5b50610120610abb565b6040518080602001828103825283818151815260200191508051906020019060200280838360005b83811015610163578082015181840152602081019050610148565b505050509050019250505060405180910390f35b34801561018357600080fd5b506101fe600480360381019080803573ffffffffffffffffffffffffffffffffffffffff169060200190929190803590602001908201803590602001908080601f0160208091040260200160405190810160405280939291908181526020018383808284378201915050505050509192919290505050610be0565b005b34801561020c57600080fd5b5061022b60048036038101908080359060200190929190505050610c61565b005b34801561023957600080fd5b50610242610e58565b6040518080602001838152602001828103825284818151815260200191508051906020019060200280838360005b8381101561028b578082015181840152602081019050610270565b50505050905001935050505060405180910390f35b3480156102ac57600080fd5b506102b5610efe565b6040518080602001828103825283818151815260200191508051906020019080838360005b838110156102f55780820151818401526020810190506102da565b50505050905090810190601f1680156103225780820380516001836020036101000a031916815260200191505b509250505060405180910390f35b34801561033c57600080fd5b506103b7600480360381019080803573ffffffffffffffffffffffffffffffffffffffff169060200190929190803590602001908201803590602001908080601f0160208091040260200160405190810160405280939291908181526020018383808284378201915050505050509192919290505050610f37565b604051808215151515815260200191505060405180910390f35b3480156103dd57600080fd5b5061043560048036038101908080359060200190820180359060200190808060200260200160405190810160405280939291908181526020018383602002808284378201915050505050509192919290505050610fbe565b005b34801561044357600080fd5b50610478600480360381019080803573ffffffffffffffffffffffffffffffffffffffff16906020019092919050505061105a565b005b34801561048657600080fd5b5061056d600480360381019080803590602001908201803590602001908080601f0160208091040260200160405190810160405280939291908181526020018383808284378201915050505050509192919290803590602001908201803590602001908080601f0160208091040260200160405190810160405280939291908181526020018383808284378201915050505050509192919290803590602001908201803590602001908080601f01602080910402602001604051908101604052809392919081815260200183838082843782019150505050505091929192905050506110f7565b005b34801561057b57600080fd5b5061059a600480360381019080803590602001909291905050506113e5565b604051808881526020018773ffffffffffffffffffffffffffffffffffffffff1673ffffffffffffffffffffffffffffffffffffffff16815260200180602001806020018060200186151515158152602001858152602001848103845289818151815260200191508051906020019080838360005b8381101561062a57808201518184015260208101905061060f565b50505050905090810190601f1680156106575780820380516001836020036101000a031916815260200191505b50848103835288818151815260200191508051906020019080838360005b83811015610690578082015181840152602081019050610675565b50505050905090810190601f1680156106bd5780820380516001836020036101000a031916815260200191505b50848103825287818151815260200191508051906020019080838360005b838110156106f65780820151818401526020810190506106db565b50505050905090810190601f1680156107235780820380516001836020036101000a031916815260200191505b509a505050505050505050505060405180910390f35b34801561074557600080fd5b506107646004803603810190808035906020019092919050505061161c565b604051808273ffffffffffffffffffffffffffffffffffffffff1673ffffffffffffffffffffffffffffffffffffffff16815260200191505060405180910390f35b3480156107b257600080fd5b506107bb61165a565b005b3480156107c957600080fd5b506107fe600480360381019080803573ffffffffffffffffffffffffffffffffffffffff16906020019092919050505061175c565b005b34801561080c57600080fd5b5061093360048036038101908080359060200190929190803573ffffffffffffffffffffffffffffffffffffffff169060200190929190803590602001908201803590602001908080601f0160208091040260200160405190810160405280939291908181526020018383808284378201915050505050509192919290803590602001908201803590602001908080601f0160208091040260200160405190810160405280939291908181526020018383808284378201915050505050509192919290803590602001908201803590602001908080601f016020809104026020016040519081016040528093929190818152602001838380828437820191505050505050919291929080351515906020019092919080359060200190929190505050611874565b005b34801561094157600080fd5b5061094a6119c5565b604051808273ffffffffffffffffffffffffffffffffffffffff1673ffffffffffffffffffffffffffffffffffffffff16815260200191505060405180910390f35b34801561099857600080fd5b506109cd600480360381019080803573ffffffffffffffffffffffffffffffffffffffff1690602001909291905050506119ea565b604051808215151515815260200191505060405180910390f35b3480156109f357600080fd5b50610a4b60048036038101908080359060200190820180359060200190808060200260200160405190810160405280939291908181526020018383602002808284378201915050505050509192919290505050611a32565b005b348015610a5957600080fd5b50610a62611ace565b6040518082815260200191505060405180910390f35b348015610a8457600080fd5b50610ab9600480360381019080803573ffffffffffffffffffffffffffffffffffffffff169060200190929190505050611ad8565b005b60608060008060606000600554604051908082528060200260200182016040528015610af65781602001602082028038833980820191505090505b50945060009350600192505b60055483111515610b555760036000848152602001908152602001600020600001548585815181101515610b3257fe5b906020019060200201818152505083806001019450508280600101935050610b02565b83604051908082528060200260200182016040528015610b845781602001602082028038833980820191505090505b509150600090505b83811015610bd5578481815181101515610ba257fe5b906020019060200201518282815181101515610bba57fe5b90602001906020020181815250508080600101915050610b8c565b819550505050505090565b610c5d826001836040518082805190602001908083835b602083101515610c1c5780518252602082019150602081019050602083039250610bf7565b6001836020036101000a0380198251168184511680821785525050505050509050019150509081526020016040518091039020611b3f90919063ffffffff16565b5050565b60008033610ca4816040805190810160405280600e81526020017f617274776f726b436865636b6572000000000000000000000000000000000000815250610be0565b83600015156003600083815260200190815260200160002060050160009054906101000a900460ff161515141515610cdb57600080fd5b8060055410151515610cec57600080fd5b600460003373ffffffffffffffffffffffffffffffffffffffff1673ffffffffffffffffffffffffffffffffffffffff1681526020019081526020016000209350600092505b600460003373ffffffffffffffffffffffffffffffffffffffff1673ffffffffffffffffffffffffffffffffffffffff16815260200190815260200160002060000180549050831015610df45784600460003373ffffffffffffffffffffffffffffffffffffffff1673ffffffffffffffffffffffffffffffffffffffff16815260200190815260200160002060000184815481101515610dcf57fe5b906000526020600020015414151515610de757600080fd5b8280600101935050610d32565b836000018590806001815401808255809150509060018203906000526020600020016000909192909190915055506003600086815260200190815260200160002060060160008154809291906001019190505550610e5185611b58565b5050505050565b60606000600460003373ffffffffffffffffffffffffffffffffffffffff1673ffffffffffffffffffffffffffffffffffffffff16815260200190815260200160002060000160028054905081805480602002602001604051908101604052809291908181526020018280548015610eef57602002820191906000526020600020905b815481526020019060010190808311610edb575b50505050509150915091509091565b6040805190810160405280600e81526020017f617274776f726b436865636b657200000000000000000000000000000000000081525081565b6000610fb6836001846040518082805190602001908083835b602083101515610f755780518252602082019150602081019050602083039250610f50565b6001836020036101000a0380198251168184511680821785525050505050509050019150509081526020016040518091039020611bee90919063ffffffff16565b905092915050565b60008060009054906101000a900473ffffffffffffffffffffffffffffffffffffffff1673ffffffffffffffffffffffffffffffffffffffff163373ffffffffffffffffffffffffffffffffffffffff1614151561101b57600080fd5b600090505b815181101561105657611049828281518110151561103a57fe5b9060200190602002015161105a565b8080600101915050611020565b5050565b6000809054906101000a900473ffffffffffffffffffffffffffffffffffffffff1673ffffffffffffffffffffffffffffffffffffffff163373ffffffffffffffffffffffffffffffffffffffff161415156110b557600080fd5b6110f4816040805190810160405280600e81526020017f617274776f726b436865636b6572000000000000000000000000000000000000815250611c47565b50565b60056000815480929190600101919050555060e06040519081016040528060055481526020013373ffffffffffffffffffffffffffffffffffffffff16815260200184815260200183815260200182815260200160001515815260200160008152506003600060055481526020019081526020016000206000820151816000015560208201518160010160006101000a81548173ffffffffffffffffffffffffffffffffffffffff021916908373ffffffffffffffffffffffffffffffffffffffff16021790555060408201518160020190805190602001906111db929190612065565b5060608201518160030190805190602001906111f8929190612065565b506080820151816004019080519060200190611215929190612065565b5060a08201518160050160006101000a81548160ff02191690831515021790555060c082015181600601559050503373ffffffffffffffffffffffffffffffffffffffff166005547f69b212700b269b6768d30995de959e9b0d7d8d9f709f8f7a83c0221dabfb348585858560006040518080602001806020018060200185151515158152602001848103845288818151815260200191508051906020019080838360005b838110156112d55780820151818401526020810190506112ba565b50505050905090810190601f1680156113025780820380516001836020036101000a031916815260200191505b50848103835287818151815260200191508051906020019080838360005b8381101561133b578082015181840152602081019050611320565b50505050905090810190601f1680156113685780820380516001836020036101000a031916815260200191505b50848103825286818151815260200191508051906020019080838360005b838110156113a1578082015181840152602081019050611386565b50505050905090810190601f1680156113ce5780820380516001836020036101000a031916815260200191505b5097505050505050505060405180910390a3505050565b60036020528060005260406000206000915090508060000154908060010160009054906101000a900473ffffffffffffffffffffffffffffffffffffffff1690806002018054600181600116156101000203166002900480601f0160208091040260200160405190810160405280929190818152602001828054600181600116156101000203166002900480156114bd5780601f10611492576101008083540402835291602001916114bd565b820191906000526020600020905b8154815290600101906020018083116114a057829003601f168201915b505050505090806003018054600181600116156101000203166002900480601f01602080910402602001604051908101604052809291908181526020018280546001816001161561010002031660029004801561155b5780601f106115305761010080835404028352916020019161155b565b820191906000526020600020905b81548152906001019060200180831161153e57829003601f168201915b505050505090806004018054600181600116156101000203166002900480601f0160208091040260200160405190810160405280929190818152602001828054600181600116156101000203166002900480156115f95780601f106115ce576101008083540402835291602001916115f9565b820191906000526020600020905b8154815290600101906020018083116115dc57829003601f168201915b5050505050908060050160009054906101000a900460ff16908060060154905087565b60028181548110151561162b57fe5b906000526020600020016000915054906101000a900473ffffffffffffffffffffffffffffffffffffffff1681565b6000809054906101000a900473ffffffffffffffffffffffffffffffffffffffff1673ffffffffffffffffffffffffffffffffffffffff163373ffffffffffffffffffffffffffffffffffffffff161415156116b557600080fd5b6000809054906101000a900473ffffffffffffffffffffffffffffffffffffffff1673ffffffffffffffffffffffffffffffffffffffff167ff8df31144d9c2f0f6b59d69b8b98abd5459d07f2742c4df920b25aae33c6482060405160405180910390a260008060006101000a81548173ffffffffffffffffffffffffffffffffffffffff021916908373ffffffffffffffffffffffffffffffffffffffff160217905550565b6000809054906101000a900473ffffffffffffffffffffffffffffffffffffffff1673ffffffffffffffffffffffffffffffffffffffff163373ffffffffffffffffffffffffffffffffffffffff161415156117b757600080fd5b6117c0816119ea565b1515156117cc57600080fd5b60028190806001815401808255809150509060018203906000526020600020016000909192909190916101000a81548173ffffffffffffffffffffffffffffffffffffffff021916908373ffffffffffffffffffffffffffffffffffffffff16021790555050611871816040805190810160405280600e81526020017f617274776f726b436865636b6572000000000000000000000000000000000000815250611d7b565b50565b60056000815480929190600101919050555060e0604051908101604052808881526020018773ffffffffffffffffffffffffffffffffffffffff1681526020018681526020018581526020018481526020018315158152602001828152506003600060055481526020019081526020016000206000820151816000015560208201518160010160006101000a81548173ffffffffffffffffffffffffffffffffffffffff021916908373ffffffffffffffffffffffffffffffffffffffff1602179055506040820151816002019080519060200190611954929190612065565b506060820151816003019080519060200190611971929190612065565b50608082015181600401908051906020019061198e929190612065565b5060a08201518160050160006101000a81548160ff02191690831515021790555060c0820151816006015590505050505050505050565b6000809054906101000a900473ffffffffffffffffffffffffffffffffffffffff1681565b6000611a2b826040805190810160405280600e81526020017f617274776f726b436865636b6572000000000000000000000000000000000000815250610f37565b9050919050565b60008060009054906101000a900473ffffffffffffffffffffffffffffffffffffffff1673ffffffffffffffffffffffffffffffffffffffff163373ffffffffffffffffffffffffffffffffffffffff16141515611a8f57600080fd5b600090505b8151811015611aca57611abd8282815181101515611aae57fe5b9060200190602002015161175c565b8080600101915050611a94565b5050565b6000600554905090565b6000809054906101000a900473ffffffffffffffffffffffffffffffffffffffff1673ffffffffffffffffffffffffffffffffffffffff163373ffffffffffffffffffffffffffffffffffffffff16141515611b3357600080fd5b611b3c81611eaf565b50565b611b498282611bee565b1515611b5457600080fd5b5050565b600260036000838152602001908152602001600020600601541115611beb5760016003600083815260200190815260200160002060050160006101000a81548160ff0219169083151502179055503373ffffffffffffffffffffffffffffffffffffffff16817f0ad40c3a33907c1c9fd5d63f76b8299ddcb956513ff10f6d08280cc9c176bce960405160405180910390a35b50565b60008260000160008373ffffffffffffffffffffffffffffffffffffffff1673ffffffffffffffffffffffffffffffffffffffff16815260200190815260200160002060009054906101000a900460ff16905092915050565b611cc4826001836040518082805190602001908083835b602083101515611c835780518252602082019150602081019050602083039250611c5e565b6001836020036101000a0380198251168184511680821785525050505050509050019150509081526020016040518091039020611fa990919063ffffffff16565b8173ffffffffffffffffffffffffffffffffffffffff167fd211483f91fc6eff862467f8de606587a30c8fc9981056f051b897a418df803a826040518080602001828103825283818151815260200191508051906020019080838360005b83811015611d3d578082015181840152602081019050611d22565b50505050905090810190601f168015611d6a5780820380516001836020036101000a031916815260200191505b509250505060405180910390a25050565b611df8826001836040518082805190602001908083835b602083101515611db75780518252602082019150602081019050602083039250611d92565b6001836020036101000a038019825116818451168082178552505050505050905001915050908152602001604051809103902061200790919063ffffffff16565b8173ffffffffffffffffffffffffffffffffffffffff167fbfec83d64eaa953f2708271a023ab9ee82057f8f3578d548c1a4ba0b5b700489826040518080602001828103825283818151815260200191508051906020019080838360005b83811015611e71578082015181840152602081019050611e56565b50505050905090810190601f168015611e9e5780820380516001836020036101000a031916815260200191505b509250505060405180910390a25050565b600073ffffffffffffffffffffffffffffffffffffffff168173ffffffffffffffffffffffffffffffffffffffff1614151515611eeb57600080fd5b8073ffffffffffffffffffffffffffffffffffffffff166000809054906101000a900473ffffffffffffffffffffffffffffffffffffffff1673ffffffffffffffffffffffffffffffffffffffff167f8be0079c531659141344cd1fd0a4f28419497f9722a3daafe3b4186f6b6457e060405160405180910390a3806000806101000a81548173ffffffffffffffffffffffffffffffffffffffff021916908373ffffffffffffffffffffffffffffffffffffffff16021790555050565b60008260000160008373ffffffffffffffffffffffffffffffffffffffff1673ffffffffffffffffffffffffffffffffffffffff16815260200190815260200160002060006101000a81548160ff0219169083151502179055505050565b60018260000160008373ffffffffffffffffffffffffffffffffffffffff1673ffffffffffffffffffffffffffffffffffffffff16815260200190815260200160002060006101000a81548160ff0219169083151502179055505050565b828054600181600116156101000203166002900490600052602060002090601f016020900481019282601f106120a657805160ff19168380011785556120d4565b828001600101855582156120d4579182015b828111156120d35782518255916020019190600101906120b8565b5b5090506120e191906120e5565b5090565b61210791905b808211156121035760008160009055506001016120eb565b5090565b905600a165627a7a723058203d608a2f8567a0a73f0ef8b67d4e9ee2fdbc1f90a009f779057f85b6d74da6020029",
  "source": "pragma solidity ^0.4.24;\n\n\nimport \"./Whitelist.sol\";\n//Top level contract inherits the implementation of \"user permissions\"\ncontract Archives is Whitelist {\n\n    //Struct data type containg basic artwork proprieties to be stored in contracts\n    struct Artwork {\n        uint id; //unique identifier\n        address author; //identifies who inserts the Artwork\n        string name;\n        string descriptionHash; //short Artwork descriptionHash (may not be necessary, depends on the final encoding tech)\n        string dataHash; //stores the hash generated by IPFS to retrieve all the information about the Artwork\n        bool validation; //indicates if the Artwork is approved by given quorum of artworkCheckers\n        uint votesNum; //number of votes casted on this particular artwork\n    }\n    //Struct to store an array of votes made by artworkCheckers\n    struct VoteRegister {\n        uint[] myVotes; // this array stores alle the ids that receive a vote from a certain address, referenced in mapping \n    }\n\n    //STATE VARIABLES\n    //Maps a reference by \"id\" to the Artwork struct\n    mapping (uint => Artwork) public artworks; //automatically sets a getter\n    //Maps a reference by \"address\" to the VoteRegister struct\n    mapping (address => VoteRegister) validators;\n    //stores the total number of works submitted\n    uint artworkCounter;\n\n    //EVENTS\n    //An Artwork has been published log\n    event LogSendArtw(\n        uint indexed _id,\n        address indexed _author,\n        string _name,\n        string _descriptionHash,\n        string _data,\n        bool validation\n    );\n    //An Artwork has been validated log\n    event ValidateArtw(\n        uint indexed _id,\n        address indexed _author\n    );\n\n    //Modifiers\n    //Checks if the artwork has not yet been validate, if it has there is no point on voting that id\n    modifier checkValidation(uint _id) {\n        require(artworks[_id].validation == false); //check if the artwork is not already \"valid\"\n        require(artworkCounter >= _id); //doesn't allow to vote on non existent Artwork ids, also tested for negatives\n        _;\n    }\n\n    //publish an artwork (main form)\n    function publishArtwork(string _name, string _descriptionHash, string _dataHash) public {\n        //new artw\n        artworkCounter++;\n        artworks[artworkCounter] = Artwork(\n            artworkCounter,\n            msg.sender,\n            _name,\n            _descriptionHash,\n            _dataHash,\n            false,\n            0\n        );\n\n        emit LogSendArtw(artworkCounter, msg.sender, _name, _descriptionHash, _dataHash, false);\n    }\n\n    //adding examples articles when deploying contract, just an example \n    //can be extended to insert inital dataset\n    constructor() public  {\n        addArtwork(1, 0x9Fb867de1eD00990FCFFefC7925846068561ef3C, \"Opera d'arte minore 1\", \"Descrizione dell'opera\", \"QmVFCTESBiwPExSBYkA5EKLQ1MHWKYG2UuHSxZAWoQHLhE\", false, 0);\n        addArtwork(2, 0x9Fb867de1eD00990FCFFefC7925846068561ef3C, \"Immagine creata da Tizio\", \"Voglio preservare questa immagine sulla blockchain...\", \"QmVFCTESBiwPExSBYkA5EKLQ1MHWKYG2UuHSxZAWoQHLhE\", false, 0);\n    }\n    //testing artworkchecker permissions (not relevant)\n    /*function test() onlyIfWhitelisted(msg.sender) public {\n        addArtwork(3, 0x9Fb867de1eD00990FCFFefC7925846068561ef3C, \"esempio3\", \"descrizione esempio 3\", \"QmVFCTESBiwPExSBYkA5EKLQ1MHWKYG2UuHSxZAWoQHLhE\", true);\n    }*/\n    //manual artwork adding for testing purposes - Just for tests and current constructor to be removed!\n    function addArtwork(uint _id, address _author, string _name, string _descriptionHash, string _dataHash, bool _validation, uint _votesNum) public {\n        artworkCounter++;\n        artworks[artworkCounter] = Artwork (\n            _id,\n            _author,\n            _name,\n            _descriptionHash,\n            _dataHash,\n            _validation,\n            _votesNum\n        );\n    }\n\n    //fetch the number of artworks in the contract\n    function getNumberOfArtworks() public view returns(uint) {\n        return artworkCounter;\n    }\n    //display all artworks stored in blockchain\n    function getArtworks() public view returns(uint[]) {\n        //prepare output array, it cannot contain more artworks than we have in the contract\n        uint[] memory artwIds = new uint[](artworkCounter);\n        uint numberOfArtw = 0;\n        //iterate over artworks\n        for(uint i = 1; i <= artworkCounter; i++) {\n            artwIds[numberOfArtw] = artworks[i].id;\n            numberOfArtw++;\n        }\n        //copy the artworks Ids array into smaller displayArt array\n        uint[] memory displayArt = new uint[](numberOfArtw);\n        for(uint j = 0; j < numberOfArtw; j++) {\n            displayArt[j] = artwIds[j];\n        }\n        return displayArt;\n    }\n    //artwork checkers can vote on artwork propriety \"votesNum\" and store their votes in storage\n    function approveArtwork(uint _id) onlyIfWhitelisted(msg.sender) checkValidation(_id) public {\n        VoteRegister storage validator = validators[msg.sender];\n        for (uint i = 0; i< validators[msg.sender].myVotes.length;i++){\n            require(!(validators[msg.sender].myVotes[i] == _id));\n        }\n        validator.myVotes.push(_id);\n        artworks[_id].votesNum++;\n        completeValidation(_id);\n    }\n    //checks if the \"quorum\" number has been met, static example of \"2\", can be i.e 1/3 of total artworkCheckers\n    function completeValidation(uint _id) internal {\n        if (artworks[_id].votesNum > 2 ) {\n            artworks[_id].validation = true;\n            emit ValidateArtw(_id, msg.sender);\n        }\n    }\n\n    //returns votes made by given artworkChecker and shows the length of array containg all artworkCheckers\n    //for debug purposes\n    function quorum() view public returns (uint[], uint) {\n        return (\n            validators[msg.sender].myVotes,\n            artworkCheckersAccount.length\n            );\n    }\n}",
  "sourcePath": "D:\\Blockchain projects\\digitalArchivesProject\\contracts\\Archives.sol",
  "compiler": {
    "name": "solc",
    "version": "0.4.24+commit.e67f0147.Emscripten.clang"
  },
  "schemaVersion": "2.0.1",
  "updatedAt": "2018-10-20T19:40:54.056Z"
}