{
  "contractName": "Archives",
  "abi": [
    {
      "constant": true,
      "inputs": [
        {
          "name": "_operator",
          "type": "address"
        },
        {
          "name": "_role",
          "type": "string"
        }
      ],
      "name": "checkRole",
      "outputs": [],
      "payable": false,
      "stateMutability": "view",
      "type": "function"
    },
    {
      "constant": true,
      "inputs": [],
      "name": "ROLE_WHITELISTED",
      "outputs": [
        {
          "name": "",
          "type": "string"
        }
      ],
      "payable": false,
      "stateMutability": "view",
      "type": "function"
    },
    {
      "constant": true,
      "inputs": [
        {
          "name": "_operator",
          "type": "address"
        },
        {
          "name": "_role",
          "type": "string"
        }
      ],
      "name": "hasRole",
      "outputs": [
        {
          "name": "",
          "type": "bool"
        }
      ],
      "payable": false,
      "stateMutability": "view",
      "type": "function"
    },
    {
      "constant": false,
      "inputs": [
        {
          "name": "_operators",
          "type": "address[]"
        }
      ],
      "name": "removeAddressesFromWhitelist",
      "outputs": [],
      "payable": false,
      "stateMutability": "nonpayable",
      "type": "function"
    },
    {
      "constant": false,
      "inputs": [
        {
          "name": "_operator",
          "type": "address"
        }
      ],
      "name": "removeAddressFromWhitelist",
      "outputs": [],
      "payable": false,
      "stateMutability": "nonpayable",
      "type": "function"
    },
    {
      "constant": true,
      "inputs": [
        {
          "name": "",
          "type": "uint256"
        }
      ],
      "name": "artworks",
      "outputs": [
        {
          "name": "id",
          "type": "uint256"
        },
        {
          "name": "author",
          "type": "address"
        },
        {
          "name": "name",
          "type": "string"
        },
        {
          "name": "descriptionHash",
          "type": "string"
        },
        {
          "name": "mainPreviewHash",
          "type": "string"
        },
        {
          "name": "validation",
          "type": "bool"
        },
        {
          "name": "votesNum",
          "type": "uint256"
        }
      ],
      "payable": false,
      "stateMutability": "view",
      "type": "function"
    },
    {
      "constant": true,
      "inputs": [
        {
          "name": "",
          "type": "uint256"
        }
      ],
      "name": "artworkCheckersAccount",
      "outputs": [
        {
          "name": "",
          "type": "address"
        }
      ],
      "payable": false,
      "stateMutability": "view",
      "type": "function"
    },
    {
      "constant": false,
      "inputs": [],
      "name": "renounceOwnership",
      "outputs": [],
      "payable": false,
      "stateMutability": "nonpayable",
      "type": "function"
    },
    {
      "constant": false,
      "inputs": [
        {
          "name": "_operator",
          "type": "address"
        }
      ],
      "name": "addAddressToWhitelist",
      "outputs": [],
      "payable": false,
      "stateMutability": "nonpayable",
      "type": "function"
    },
    {
      "constant": true,
      "inputs": [],
      "name": "owner",
      "outputs": [
        {
          "name": "",
          "type": "address"
        }
      ],
      "payable": false,
      "stateMutability": "view",
      "type": "function"
    },
    {
      "constant": true,
      "inputs": [
        {
          "name": "_operator",
          "type": "address"
        }
      ],
      "name": "whitelist",
      "outputs": [
        {
          "name": "",
          "type": "bool"
        }
      ],
      "payable": false,
      "stateMutability": "view",
      "type": "function"
    },
    {
      "constant": false,
      "inputs": [
        {
          "name": "_operators",
          "type": "address[]"
        }
      ],
      "name": "addAddressesToWhitelist",
      "outputs": [],
      "payable": false,
      "stateMutability": "nonpayable",
      "type": "function"
    },
    {
      "constant": false,
      "inputs": [
        {
          "name": "_newOwner",
          "type": "address"
        }
      ],
      "name": "transferOwnership",
      "outputs": [],
      "payable": false,
      "stateMutability": "nonpayable",
      "type": "function"
    },
    {
      "inputs": [],
      "payable": false,
      "stateMutability": "nonpayable",
      "type": "constructor"
    },
    {
      "anonymous": false,
      "inputs": [
        {
          "indexed": true,
          "name": "_id",
          "type": "uint256"
        },
        {
          "indexed": true,
          "name": "_author",
          "type": "address"
        },
        {
          "indexed": false,
          "name": "_name",
          "type": "string"
        },
        {
          "indexed": false,
          "name": "_descriptionHash",
          "type": "string"
        },
        {
          "indexed": false,
          "name": "_data",
          "type": "string"
        },
        {
          "indexed": false,
          "name": "validation",
          "type": "bool"
        }
      ],
      "name": "LogSendArtw",
      "type": "event"
    },
    {
      "anonymous": false,
      "inputs": [
        {
          "indexed": true,
          "name": "_id",
          "type": "uint256"
        },
        {
          "indexed": true,
          "name": "_author",
          "type": "address"
        }
      ],
      "name": "ValidateArtw",
      "type": "event"
    },
    {
      "anonymous": false,
      "inputs": [
        {
          "indexed": true,
          "name": "_id",
          "type": "uint256"
        },
        {
          "indexed": true,
          "name": "_author",
          "type": "address"
        }
      ],
      "name": "artworkModify",
      "type": "event"
    },
    {
      "anonymous": false,
      "inputs": [
        {
          "indexed": true,
          "name": "operator",
          "type": "address"
        },
        {
          "indexed": false,
          "name": "role",
          "type": "string"
        }
      ],
      "name": "RoleAdded",
      "type": "event"
    },
    {
      "anonymous": false,
      "inputs": [
        {
          "indexed": true,
          "name": "operator",
          "type": "address"
        },
        {
          "indexed": false,
          "name": "role",
          "type": "string"
        }
      ],
      "name": "RoleRemoved",
      "type": "event"
    },
    {
      "anonymous": false,
      "inputs": [
        {
          "indexed": true,
          "name": "previousOwner",
          "type": "address"
        }
      ],
      "name": "OwnershipRenounced",
      "type": "event"
    },
    {
      "anonymous": false,
      "inputs": [
        {
          "indexed": true,
          "name": "previousOwner",
          "type": "address"
        },
        {
          "indexed": true,
          "name": "newOwner",
          "type": "address"
        }
      ],
      "name": "OwnershipTransferred",
      "type": "event"
    },
    {
      "constant": false,
      "inputs": [
        {
          "name": "_name",
          "type": "string"
        },
        {
          "name": "_descriptionHash",
          "type": "string"
        },
        {
          "name": "_mainPreviewHash",
          "type": "string"
        }
      ],
      "name": "publishArtwork",
      "outputs": [],
      "payable": false,
      "stateMutability": "nonpayable",
      "type": "function"
    },
    {
      "constant": true,
      "inputs": [],
      "name": "getNumberOfArtworks",
      "outputs": [
        {
          "name": "",
          "type": "uint256"
        }
      ],
      "payable": false,
      "stateMutability": "view",
      "type": "function"
    },
    {
      "constant": true,
      "inputs": [],
      "name": "getArtworks",
      "outputs": [
        {
          "name": "",
          "type": "uint256[]"
        }
      ],
      "payable": false,
      "stateMutability": "view",
      "type": "function"
    },
    {
      "constant": false,
      "inputs": [
        {
          "name": "_id",
          "type": "uint256"
        }
      ],
      "name": "approveArtwork",
      "outputs": [],
      "payable": false,
      "stateMutability": "nonpayable",
      "type": "function"
    },
    {
      "constant": false,
      "inputs": [
        {
          "name": "_id",
          "type": "uint256"
        },
        {
          "name": "_newDescriptionHash",
          "type": "string"
        }
      ],
      "name": "modifyArtworkDescription",
      "outputs": [],
      "payable": false,
      "stateMutability": "nonpayable",
      "type": "function"
    }
  ],
  "bytecode": "0x60806040523480156200001157600080fd5b50336000806101000a81548173ffffffffffffffffffffffffffffffffffffffff021916908373ffffffffffffffffffffffffffffffffffffffff160217905550620001766001739fb867de1ed00990fcffefc7925846068561ef3c6040805190810160405280601d81526020017f4f7065726120642761727465206d696e6f726520617070726f76617461000000815250606060405190810160405280602e81526020017f516d52444b69564b61454678634561357a39686153316645685162517269715981526020017f674e6e4173486d67784d32646536000000000000000000000000000000000000815250606060405190810160405280602e81526020017f516d5646435445534269775045785342596b4135454b4c51314d48574b59473281526020017f55754853785a41576f51484c684500000000000000000000000000000000000081525060016002620003c2640100000000026401000000009004565b620002996002739fb867de1ed00990fcffefc7925846068561ef3c6040805190810160405280601581526020017f4f7065726120642761727465207363756c747572610000000000000000000000815250606060405190810160405280602e81526020017f516d52444b69564b61454678634561357a39686153316645685162517269715981526020017f674e6e4173486d67784d32646536000000000000000000000000000000000000815250606060405190810160405280602e81526020017f516d5646435445534269775045785342596b4135454b4c51314d48574b59473281526020017f55754853785a41576f51484c6845000000000000000000000000000000000000815250600080620003c2640100000000026401000000009004565b620003bc6003739fb867de1ed00990fcffefc7925846068561ef3c6040805190810160405280601581526020017f4f7065726120642761727465207363756c747572610000000000000000000000815250606060405190810160405280602e81526020017f516d52444b69564b61454678634561357a39686153316645685162517269715981526020017f674e6e4173486d67784d32646536000000000000000000000000000000000000815250606060405190810160405280602e81526020017f516d5646435445534269775045785342596b4135454b4c51314d48574b59473281526020017f55754853785a41576f51484c6845000000000000000000000000000000000000815250600080620003c2640100000000026401000000009004565b620005c8565b60056000815480929190600101919050555060e0604051908101604052808881526020018773ffffffffffffffffffffffffffffffffffffffff1681526020018681526020018581526020018481526020018315158152602001828152506003600060055481526020019081526020016000206000820151816000015560208201518160010160006101000a81548173ffffffffffffffffffffffffffffffffffffffff021916908373ffffffffffffffffffffffffffffffffffffffff1602179055506040820151816002019080519060200190620004a492919062000519565b506060820151816003019080519060200190620004c392919062000519565b506080820151816004019080519060200190620004e292919062000519565b5060a08201518160050160006101000a81548160ff02191690831515021790555060c0820151816006015590505050505050505050565b828054600181600116156101000203166002900490600052602060002090601f016020900481019282601f106200055c57805160ff19168380011785556200058d565b828001600101855582156200058d579182015b828111156200058c5782518255916020019190600101906200056f565b5b5090506200059c9190620005a0565b5090565b620005c591905b80821115620005c1576000816000905550600101620005a7565b5090565b90565b61223680620005d86000396000f3006080604052600436106100fb576000357c0100000000000000000000000000000000000000000000000000000000900463ffffffff168062a71527146101005780630988ca8c1461016c5780630e7a440d146101f557806318b919e914610222578063217fe6c6146102b257806324953eaa14610353578063286dd3f5146103b95780634a7848c3146103fc5780634b602673146104f157806356290052146106bb578063715018a6146107285780637b9417c81461073f5780638da5cb5b146107825780639b19251a146107d9578063e2ec6ec314610834578063efbda7521461089a578063f1e67a02146108c5578063f2fde38b14610938575b600080fd5b34801561010c57600080fd5b5061011561097b565b6040518080602001828103825283818151815260200191508051906020019060200280838360005b8381101561015857808201518184015260208101905061013d565b505050509050019250505060405180910390f35b34801561017857600080fd5b506101f3600480360381019080803573ffffffffffffffffffffffffffffffffffffffff169060200190929190803590602001908201803590602001908080601f0160208091040260200160405190810160405280939291908181526020018383808284378201915050505050509192919290505050610aa0565b005b34801561020157600080fd5b5061022060048036038101908080359060200190929190505050610b21565b005b34801561022e57600080fd5b50610237610ec5565b6040518080602001828103825283818151815260200191508051906020019080838360005b8381101561027757808201518184015260208101905061025c565b50505050905090810190601f1680156102a45780820380516001836020036101000a031916815260200191505b509250505060405180910390f35b3480156102be57600080fd5b50610339600480360381019080803573ffffffffffffffffffffffffffffffffffffffff169060200190929190803590602001908201803590602001908080601f0160208091040260200160405190810160405280939291908181526020018383808284378201915050505050509192919290505050610efe565b604051808215151515815260200191505060405180910390f35b34801561035f57600080fd5b506103b760048036038101908080359060200190820180359060200190808060200260200160405190810160405280939291908181526020018383602002808284378201915050505050509192919290505050610f85565b005b3480156103c557600080fd5b506103fa600480360381019080803573ffffffffffffffffffffffffffffffffffffffff169060200190929190505050611021565b005b34801561040857600080fd5b506104ef600480360381019080803590602001908201803590602001908080601f0160208091040260200160405190810160405280939291908181526020018383808284378201915050505050509192919290803590602001908201803590602001908080601f0160208091040260200160405190810160405280939291908181526020018383808284378201915050505050509192919290803590602001908201803590602001908080601f01602080910402602001604051908101604052809392919081815260200183838082843782019150505050505091929192905050506110be565b005b3480156104fd57600080fd5b5061051c600480360381019080803590602001909291905050506113ac565b604051808881526020018773ffffffffffffffffffffffffffffffffffffffff1673ffffffffffffffffffffffffffffffffffffffff16815260200180602001806020018060200186151515158152602001858152602001848103845289818151815260200191508051906020019080838360005b838110156105ac578082015181840152602081019050610591565b50505050905090810190601f1680156105d95780820380516001836020036101000a031916815260200191505b50848103835288818151815260200191508051906020019080838360005b838110156106125780820151818401526020810190506105f7565b50505050905090810190601f16801561063f5780820380516001836020036101000a031916815260200191505b50848103825287818151815260200191508051906020019080838360005b8381101561067857808201518184015260208101905061065d565b50505050905090810190601f1680156106a55780820380516001836020036101000a031916815260200191505b509a505050505050505050505060405180910390f35b3480156106c757600080fd5b506106e6600480360381019080803590602001909291905050506115e3565b604051808273ffffffffffffffffffffffffffffffffffffffff1673ffffffffffffffffffffffffffffffffffffffff16815260200191505060405180910390f35b34801561073457600080fd5b5061073d611621565b005b34801561074b57600080fd5b50610780600480360381019080803573ffffffffffffffffffffffffffffffffffffffff169060200190929190505050611723565b005b34801561078e57600080fd5b5061079761183b565b604051808273ffffffffffffffffffffffffffffffffffffffff1673ffffffffffffffffffffffffffffffffffffffff16815260200191505060405180910390f35b3480156107e557600080fd5b5061081a600480360381019080803573ffffffffffffffffffffffffffffffffffffffff169060200190929190505050611860565b604051808215151515815260200191505060405180910390f35b34801561084057600080fd5b50610898600480360381019080803590602001908201803590602001908080602002602001604051908101604052809392919081815260200183836020028082843782019150505050505091929192905050506118a8565b005b3480156108a657600080fd5b506108af611944565b6040518082815260200191505060405180910390f35b3480156108d157600080fd5b5061093660048036038101908080359060200190929190803590602001908201803590602001908080601f016020809104026020016040519081016040528093929190818152602001838380828437820191505050505050919291929050505061194e565b005b34801561094457600080fd5b50610979600480360381019080803573ffffffffffffffffffffffffffffffffffffffff169060200190929190505050611b57565b005b606080600080606060006005546040519080825280602002602001820160405280156109b65781602001602082028038833980820191505090505b50945060009350600192505b60055483111515610a1557600360008481526020019081526020016000206000015485858151811015156109f257fe5b9060200190602002018181525050838060010194505082806001019350506109c2565b83604051908082528060200260200182016040528015610a445781602001602082028038833980820191505090505b509150600090505b83811015610a95578481815181101515610a6257fe5b906020019060200201518282815181101515610a7a57fe5b90602001906020020181815250508080600101915050610a4c565b819550505050505090565b610b1d826001836040518082805190602001908083835b602083101515610adc5780518252602082019150602081019050602083039250610ab7565b6001836020036101000a0380198251168184511680821785525050505050509050019150509081526020016040518091039020611bbe90919063ffffffff16565b5050565b60008033610b64816040805190810160405280600e81526020017f617274776f726b436865636b6572000000000000000000000000000000000000815250610aa0565b83600015156003600083815260200190815260200160002060050160009054906101000a900460ff161515141515610c2a576040517f08c379a00000000000000000000000000000000000000000000000000000000081526004018080602001828103825260398152602001807f496d706f73736962696c6520746f2076616c696461746520616e20617274776f81526020017f726b20776869636820697320616c72656164792076616c69640000000000000081525060400191505060405180910390fd5b8060055410151515610cca576040517f08c379a00000000000000000000000000000000000000000000000000000000081526004018080602001828103825260398152602001807f496d706f73736962696c6520746f20617070726f7665202876616c696461746581526020017f29206e6f6e206578697374656e7420617274776f726b2069640000000000000081525060400191505060405180910390fd5b600460003373ffffffffffffffffffffffffffffffffffffffff1673ffffffffffffffffffffffffffffffffffffffff1681526020019081526020016000209350600092505b600460003373ffffffffffffffffffffffffffffffffffffffff1673ffffffffffffffffffffffffffffffffffffffff16815260200190815260200160002060000180549050831015610e615784600460003373ffffffffffffffffffffffffffffffffffffffff1673ffffffffffffffffffffffffffffffffffffffff16815260200190815260200160002060000184815481101515610dad57fe5b906000526020600020015414151515610e54576040517f08c379a000000000000000000000000000000000000000000000000000000000815260040180806020018281038252603b8152602001807f4572726f722c204d73672e73656e64657220616c726561647920766f7465642081526020017f7468697320617274776f726b20696420696e207468652070617374000000000081525060400191505060405180910390fd5b8280600101935050610d10565b836000018590806001815401808255809150509060018203906000526020600020016000909192909190915055506003600086815260200190815260200160002060060160008154809291906001019190505550610ebe85611bd7565b5050505050565b6040805190810160405280600e81526020017f617274776f726b436865636b657200000000000000000000000000000000000081525081565b6000610f7d836001846040518082805190602001908083835b602083101515610f3c5780518252602082019150602081019050602083039250610f17565b6001836020036101000a0380198251168184511680821785525050505050509050019150509081526020016040518091039020611c6e90919063ffffffff16565b905092915050565b60008060009054906101000a900473ffffffffffffffffffffffffffffffffffffffff1673ffffffffffffffffffffffffffffffffffffffff163373ffffffffffffffffffffffffffffffffffffffff16141515610fe257600080fd5b600090505b815181101561101d57611010828281518110151561100157fe5b90602001906020020151611021565b8080600101915050610fe7565b5050565b6000809054906101000a900473ffffffffffffffffffffffffffffffffffffffff1673ffffffffffffffffffffffffffffffffffffffff163373ffffffffffffffffffffffffffffffffffffffff1614151561107c57600080fd5b6110bb816040805190810160405280600e81526020017f617274776f726b436865636b6572000000000000000000000000000000000000815250611cc7565b50565b60056000815480929190600101919050555060e06040519081016040528060055481526020013373ffffffffffffffffffffffffffffffffffffffff16815260200184815260200183815260200182815260200160001515815260200160008152506003600060055481526020019081526020016000206000820151816000015560208201518160010160006101000a81548173ffffffffffffffffffffffffffffffffffffffff021916908373ffffffffffffffffffffffffffffffffffffffff16021790555060408201518160020190805190602001906111a29291906120e5565b5060608201518160030190805190602001906111bf9291906120e5565b5060808201518160040190805190602001906111dc9291906120e5565b5060a08201518160050160006101000a81548160ff02191690831515021790555060c082015181600601559050503373ffffffffffffffffffffffffffffffffffffffff166005547f69b212700b269b6768d30995de959e9b0d7d8d9f709f8f7a83c0221dabfb348585858560006040518080602001806020018060200185151515158152602001848103845288818151815260200191508051906020019080838360005b8381101561129c578082015181840152602081019050611281565b50505050905090810190601f1680156112c95780820380516001836020036101000a031916815260200191505b50848103835287818151815260200191508051906020019080838360005b838110156113025780820151818401526020810190506112e7565b50505050905090810190601f16801561132f5780820380516001836020036101000a031916815260200191505b50848103825286818151815260200191508051906020019080838360005b8381101561136857808201518184015260208101905061134d565b50505050905090810190601f1680156113955780820380516001836020036101000a031916815260200191505b5097505050505050505060405180910390a3505050565b60036020528060005260406000206000915090508060000154908060010160009054906101000a900473ffffffffffffffffffffffffffffffffffffffff1690806002018054600181600116156101000203166002900480601f0160208091040260200160405190810160405280929190818152602001828054600181600116156101000203166002900480156114845780601f1061145957610100808354040283529160200191611484565b820191906000526020600020905b81548152906001019060200180831161146757829003601f168201915b505050505090806003018054600181600116156101000203166002900480601f0160208091040260200160405190810160405280929190818152602001828054600181600116156101000203166002900480156115225780601f106114f757610100808354040283529160200191611522565b820191906000526020600020905b81548152906001019060200180831161150557829003601f168201915b505050505090806004018054600181600116156101000203166002900480601f0160208091040260200160405190810160405280929190818152602001828054600181600116156101000203166002900480156115c05780601f10611595576101008083540402835291602001916115c0565b820191906000526020600020905b8154815290600101906020018083116115a357829003601f168201915b5050505050908060050160009054906101000a900460ff16908060060154905087565b6002818154811015156115f257fe5b906000526020600020016000915054906101000a900473ffffffffffffffffffffffffffffffffffffffff1681565b6000809054906101000a900473ffffffffffffffffffffffffffffffffffffffff1673ffffffffffffffffffffffffffffffffffffffff163373ffffffffffffffffffffffffffffffffffffffff1614151561167c57600080fd5b6000809054906101000a900473ffffffffffffffffffffffffffffffffffffffff1673ffffffffffffffffffffffffffffffffffffffff167ff8df31144d9c2f0f6b59d69b8b98abd5459d07f2742c4df920b25aae33c6482060405160405180910390a260008060006101000a81548173ffffffffffffffffffffffffffffffffffffffff021916908373ffffffffffffffffffffffffffffffffffffffff160217905550565b6000809054906101000a900473ffffffffffffffffffffffffffffffffffffffff1673ffffffffffffffffffffffffffffffffffffffff163373ffffffffffffffffffffffffffffffffffffffff1614151561177e57600080fd5b61178781611860565b15151561179357600080fd5b60028190806001815401808255809150509060018203906000526020600020016000909192909190916101000a81548173ffffffffffffffffffffffffffffffffffffffff021916908373ffffffffffffffffffffffffffffffffffffffff16021790555050611838816040805190810160405280600e81526020017f617274776f726b436865636b6572000000000000000000000000000000000000815250611dfb565b50565b6000809054906101000a900473ffffffffffffffffffffffffffffffffffffffff1681565b60006118a1826040805190810160405280600e81526020017f617274776f726b436865636b6572000000000000000000000000000000000000815250610efe565b9050919050565b60008060009054906101000a900473ffffffffffffffffffffffffffffffffffffffff1673ffffffffffffffffffffffffffffffffffffffff163373ffffffffffffffffffffffffffffffffffffffff1614151561190557600080fd5b600090505b815181101561194057611933828281518110151561192457fe5b90602001906020020151611723565b808060010191505061190a565b5050565b6000600554905090565b6003600083815260200190815260200160002060010160009054906101000a900473ffffffffffffffffffffffffffffffffffffffff1673ffffffffffffffffffffffffffffffffffffffff163373ffffffffffffffffffffffffffffffffffffffff16141515611a99576040517f08c379a000000000000000000000000000000000000000000000000000000000815260040180806020018281038252607f8152602001807f4d73672e73656e646572206164647265737320646f65736e277420636f72726581526020017f73706f6e6420746f20617274776f726b20617574686f7220616464726573732081526020017f726573756c74696e6720696e20756e617574686f72697a656420617474656d7081526020017f7420746f206d6f6469667920617274776f726b206465736372697074696f6e0081525060800191505060405180910390fd5b80600360008481526020019081526020016000206003019080519060200190611ac3929190612165565b506000600360008481526020019081526020016000206006018190555060006003600084815260200190815260200160002060050160006101000a81548160ff0219169083151502179055503373ffffffffffffffffffffffffffffffffffffffff16827f315ab16fcbe851f8f76c766cba709358ebe67b880814599c362a270ff6f482d660405160405180910390a35050565b6000809054906101000a900473ffffffffffffffffffffffffffffffffffffffff1673ffffffffffffffffffffffffffffffffffffffff163373ffffffffffffffffffffffffffffffffffffffff16141515611bb257600080fd5b611bbb81611f2f565b50565b611bc88282611c6e565b1515611bd357600080fd5b5050565b60026003600083815260200190815260200160002060060154101515611c6b5760016003600083815260200190815260200160002060050160006101000a81548160ff0219169083151502179055503373ffffffffffffffffffffffffffffffffffffffff16817f0ad40c3a33907c1c9fd5d63f76b8299ddcb956513ff10f6d08280cc9c176bce960405160405180910390a35b50565b60008260000160008373ffffffffffffffffffffffffffffffffffffffff1673ffffffffffffffffffffffffffffffffffffffff16815260200190815260200160002060009054906101000a900460ff16905092915050565b611d44826001836040518082805190602001908083835b602083101515611d035780518252602082019150602081019050602083039250611cde565b6001836020036101000a038019825116818451168082178552505050505050905001915050908152602001604051809103902061202990919063ffffffff16565b8173ffffffffffffffffffffffffffffffffffffffff167fd211483f91fc6eff862467f8de606587a30c8fc9981056f051b897a418df803a826040518080602001828103825283818151815260200191508051906020019080838360005b83811015611dbd578082015181840152602081019050611da2565b50505050905090810190601f168015611dea5780820380516001836020036101000a031916815260200191505b509250505060405180910390a25050565b611e78826001836040518082805190602001908083835b602083101515611e375780518252602082019150602081019050602083039250611e12565b6001836020036101000a038019825116818451168082178552505050505050905001915050908152602001604051809103902061208790919063ffffffff16565b8173ffffffffffffffffffffffffffffffffffffffff167fbfec83d64eaa953f2708271a023ab9ee82057f8f3578d548c1a4ba0b5b700489826040518080602001828103825283818151815260200191508051906020019080838360005b83811015611ef1578082015181840152602081019050611ed6565b50505050905090810190601f168015611f1e5780820380516001836020036101000a031916815260200191505b509250505060405180910390a25050565b600073ffffffffffffffffffffffffffffffffffffffff168173ffffffffffffffffffffffffffffffffffffffff1614151515611f6b57600080fd5b8073ffffffffffffffffffffffffffffffffffffffff166000809054906101000a900473ffffffffffffffffffffffffffffffffffffffff1673ffffffffffffffffffffffffffffffffffffffff167f8be0079c531659141344cd1fd0a4f28419497f9722a3daafe3b4186f6b6457e060405160405180910390a3806000806101000a81548173ffffffffffffffffffffffffffffffffffffffff021916908373ffffffffffffffffffffffffffffffffffffffff16021790555050565b60008260000160008373ffffffffffffffffffffffffffffffffffffffff1673ffffffffffffffffffffffffffffffffffffffff16815260200190815260200160002060006101000a81548160ff0219169083151502179055505050565b60018260000160008373ffffffffffffffffffffffffffffffffffffffff1673ffffffffffffffffffffffffffffffffffffffff16815260200190815260200160002060006101000a81548160ff0219169083151502179055505050565b828054600181600116156101000203166002900490600052602060002090601f016020900481019282601f1061212657805160ff1916838001178555612154565b82800160010185558215612154579182015b82811115612153578251825591602001919060010190612138565b5b50905061216191906121e5565b5090565b828054600181600116156101000203166002900490600052602060002090601f016020900481019282601f106121a657805160ff19168380011785556121d4565b828001600101855582156121d4579182015b828111156121d35782518255916020019190600101906121b8565b5b5090506121e191906121e5565b5090565b61220791905b808211156122035760008160009055506001016121eb565b5090565b905600a165627a7a723058204e98206a3bd13bff4c06bbac6f6d554757426481ceca72c622b53823ac471d890029",
  "source": "pragma solidity ^0.4.24;\r\n\r\nimport \"./Whitelist.sol\";\r\n//Top level contract inherits the implementation of \"user permissions\"\r\ncontract Archives is Whitelist {\r\n\r\n    //Struct data type containg basic artwork proprieties to be stored in contracts\r\n    struct Artwork {\r\n        uint id; //unique identifier\r\n        address author; //identifies who inserts the Artwork\r\n        string name;\r\n        string descriptionHash; //short Artwork descriptionHash (may not be necessary, depends on the final encoding tech)\r\n        string mainPreviewHash; //stores the hash generated by IPFS to retrieve all the information about the Artwork\r\n        bool validation; //indicates if the Artwork is approved by given quorum of artworkCheckers\r\n        uint votesNum; //number of votes casted on this particular artwork\r\n    }\r\n    //Struct to store an array of votes made by artworkCheckers\r\n    struct VoteRegister {\r\n        uint[] myVotes; // this array stores alle the ids that receive a vote from a certain address, referenced in mapping \r\n    }\r\n\r\n    //STATE VARIABLES\r\n    //Maps a reference by \"id\" to the Artwork struct\r\n    mapping (uint => Artwork) public artworks; //automatically sets a getter\r\n    //Maps a reference by \"address\" to the VoteRegister struct\r\n    mapping (address => VoteRegister) validators;\r\n    //stores the total number of works submitted\r\n    uint artworkCounter;\r\n\r\n    //EVENTS\r\n    //An Artwork has been published log\r\n    event LogSendArtw(\r\n        uint indexed _id,\r\n        address indexed _author,\r\n        string _name,\r\n        string _descriptionHash,\r\n        string _data,\r\n        bool validation\r\n    );\r\n    //An Artwork has been validated log\r\n    event ValidateArtw(\r\n        uint indexed _id,\r\n        address indexed _author\r\n    );\r\n\r\n    event artworkModify(\r\n        uint indexed _id,\r\n        address indexed _author\r\n    );\r\n\r\n    //Modifiers\r\n    //Checks if the artwork has not yet been validate, if it has there is no point on voting that id\r\n    modifier checkValidation(uint _id) {\r\n        require(\r\n            artworks[_id].validation == false,\r\n            \"Impossibile to validate an artwork which is already valid\"\r\n        ); //check if the artwork is not already \"valid\"\r\n        require(\r\n            artworkCounter >= _id,\r\n            \"Impossibile to approve (validate) non existent artwork id\"\r\n        ); //doesn't allow to vote on non existent Artwork ids, also tested for negatives\r\n        _;\r\n    }\r\n\r\n    //publish an artwork (main form)\r\n    function publishArtwork(string _name, string _descriptionHash, string _mainPreviewHash) public {\r\n        //new artwork\r\n        artworkCounter++;\r\n        artworks[artworkCounter] = Artwork(\r\n            artworkCounter,\r\n            msg.sender,\r\n            _name,\r\n            _descriptionHash,\r\n            _mainPreviewHash,\r\n            false,\r\n            0\r\n        );\r\n\r\n        emit LogSendArtw(artworkCounter, msg.sender, _name, _descriptionHash, _mainPreviewHash, false);\r\n    }\r\n\r\n    //adding examples articles when deploying contract, just an example \r\n    //can be extended to insert inital dataset\r\n    constructor() public  {\r\n        addArtwork(1, 0x9Fb867de1eD00990FCFFefC7925846068561ef3C, \"Opera d'arte minore approvata\", \"QmRDKiVKaEFxcEa5z9haS1fEhQbQriqYgNnAsHmgxM2de6\", \"QmVFCTESBiwPExSBYkA5EKLQ1MHWKYG2UuHSxZAWoQHLhE\", true, 2);\r\n        addArtwork(2, 0x9Fb867de1eD00990FCFFefC7925846068561ef3C, \"Opera d'arte scultura\", \"QmRDKiVKaEFxcEa5z9haS1fEhQbQriqYgNnAsHmgxM2de6\", \"QmVFCTESBiwPExSBYkA5EKLQ1MHWKYG2UuHSxZAWoQHLhE\", false, 0);\r\n        addArtwork(3, 0x9Fb867de1eD00990FCFFefC7925846068561ef3C, \"Opera d'arte scultura\", \"QmRDKiVKaEFxcEa5z9haS1fEhQbQriqYgNnAsHmgxM2de6\", \"QmVFCTESBiwPExSBYkA5EKLQ1MHWKYG2UuHSxZAWoQHLhE\", false, 0);\r\n    }\r\n    //manual artwork adding for constructor useful for test, should be removed in production!\r\n    function addArtwork(uint _id, address _author, string _name, string _descriptionHash, string _mainPreviewHash, bool _validation, uint _votesNum) internal {\r\n        artworkCounter++;\r\n        artworks[artworkCounter] = Artwork (\r\n            _id,\r\n            _author,\r\n            _name,\r\n            _descriptionHash,\r\n            _mainPreviewHash,\r\n            _validation,\r\n            _votesNum\r\n        );\r\n    }\r\n\r\n    //fetch the number of artworks in the contract\r\n    function getNumberOfArtworks() public view returns(uint) {\r\n        return artworkCounter;\r\n    }\r\n    //display all artworks stored in blockchain\r\n    function getArtworks() public view returns(uint[]) {\r\n        //prepare output array, it cannot contain more artworks than we have in the contract\r\n        uint[] memory artwIds = new uint[](artworkCounter);\r\n        uint numberOfArtw = 0;\r\n        //iterate over artworks\r\n        for(uint i = 1; i <= artworkCounter; i++) {\r\n            artwIds[numberOfArtw] = artworks[i].id;\r\n            numberOfArtw++;\r\n        }\r\n        //copy the artworks Ids array into smaller displayArt array\r\n        uint[] memory displayArt = new uint[](numberOfArtw);\r\n        for(uint j = 0; j < numberOfArtw; j++) {\r\n            displayArt[j] = artwIds[j];\r\n        }\r\n        return displayArt;\r\n    }\r\n    //artwork checkers can vote on artwork propriety \"votesNum\" and store their votes in storage\r\n    function approveArtwork(uint _id) public onlyIfWhitelisted(msg.sender) checkValidation(_id) {\r\n        VoteRegister storage validator = validators[msg.sender];\r\n        for (uint i = 0; i < validators[msg.sender].myVotes.length;i++){\r\n            require(\r\n                !(validators[msg.sender].myVotes[i] == _id),\r\n                \"Error, Msg.sender already voted this artwork id in the past\"\r\n            );\r\n        }\r\n        validator.myVotes.push(_id);\r\n        artworks[_id].votesNum++;\r\n        completeValidation(_id);\r\n    }\r\n    //checks if the \"quorum\" number has been met, static example of \"2\", can be e.g 1/3 of total artworkCheckers\r\n    function completeValidation(uint _id) internal {\r\n        if (artworks[_id].votesNum >= 2 ) {\r\n            artworks[_id].validation = true;\r\n            emit ValidateArtw(_id, msg.sender);\r\n        }\r\n    }\r\n    \r\n    function modifyArtworkDescription (uint _id, string _newDescriptionHash) public {\r\n        require(\r\n            msg.sender == artworks[_id].author,\r\n            \"Msg.sender address doesn't correspond to artwork author address resulting in unauthorized attempt to modify artwork description\"\r\n        );\r\n        artworks[_id].descriptionHash = _newDescriptionHash;\r\n        artworks[_id].votesNum = 0; \r\n        artworks[_id].validation = false;\r\n        emit artworkModify(_id, msg.sender);\r\n    }\r\n\r\n    //returns votes made by given artworkChecker and shows the length of array containg all artworkCheckers\r\n    //for debug purposes\r\n    /*function quorum() view public returns (uint[], uint) {\r\n        return (\r\n            validators[msg.sender].myVotes,\r\n            artworkCheckersAccount.length\r\n            );\r\n    }*/\r\n}",
  "sourcePath": "D:\\Blockchain projects\\digitalArchivesProject\\contracts\\Archives.sol",
  "compiler": {
    "name": "solc",
    "version": "0.4.24+commit.e67f0147.Emscripten.clang"
  },
  "schemaVersion": "2.0.1",
  "updatedAt": "2018-11-06T12:04:45.091Z"
}