{
  "contractName": "Archives",
  "abi": [
    {
      "constant": true,
      "inputs": [
        {
          "name": "_operator",
          "type": "address"
        },
        {
          "name": "_role",
          "type": "string"
        }
      ],
      "name": "checkRole",
      "outputs": [],
      "payable": false,
      "stateMutability": "view",
      "type": "function"
    },
    {
      "constant": true,
      "inputs": [],
      "name": "ROLE_WHITELISTED",
      "outputs": [
        {
          "name": "",
          "type": "string"
        }
      ],
      "payable": false,
      "stateMutability": "view",
      "type": "function"
    },
    {
      "constant": true,
      "inputs": [
        {
          "name": "_operator",
          "type": "address"
        },
        {
          "name": "_role",
          "type": "string"
        }
      ],
      "name": "hasRole",
      "outputs": [
        {
          "name": "",
          "type": "bool"
        }
      ],
      "payable": false,
      "stateMutability": "view",
      "type": "function"
    },
    {
      "constant": false,
      "inputs": [
        {
          "name": "_operators",
          "type": "address[]"
        }
      ],
      "name": "removeAddressesFromWhitelist",
      "outputs": [],
      "payable": false,
      "stateMutability": "nonpayable",
      "type": "function"
    },
    {
      "constant": false,
      "inputs": [
        {
          "name": "_operator",
          "type": "address"
        }
      ],
      "name": "removeAddressFromWhitelist",
      "outputs": [],
      "payable": false,
      "stateMutability": "nonpayable",
      "type": "function"
    },
    {
      "constant": true,
      "inputs": [
        {
          "name": "",
          "type": "uint256"
        }
      ],
      "name": "artworks",
      "outputs": [
        {
          "name": "id",
          "type": "uint256"
        },
        {
          "name": "author",
          "type": "address"
        },
        {
          "name": "name",
          "type": "string"
        },
        {
          "name": "description",
          "type": "string"
        },
        {
          "name": "dataHash",
          "type": "string"
        },
        {
          "name": "validation",
          "type": "bool"
        }
      ],
      "payable": false,
      "stateMutability": "view",
      "type": "function"
    },
    {
      "constant": false,
      "inputs": [],
      "name": "renounceOwnership",
      "outputs": [],
      "payable": false,
      "stateMutability": "nonpayable",
      "type": "function"
    },
    {
      "constant": false,
      "inputs": [
        {
          "name": "_operator",
          "type": "address"
        }
      ],
      "name": "addAddressToWhitelist",
      "outputs": [],
      "payable": false,
      "stateMutability": "nonpayable",
      "type": "function"
    },
    {
      "constant": true,
      "inputs": [],
      "name": "owner",
      "outputs": [
        {
          "name": "",
          "type": "address"
        }
      ],
      "payable": false,
      "stateMutability": "view",
      "type": "function"
    },
    {
      "constant": true,
      "inputs": [
        {
          "name": "_operator",
          "type": "address"
        }
      ],
      "name": "whitelist",
      "outputs": [
        {
          "name": "",
          "type": "bool"
        }
      ],
      "payable": false,
      "stateMutability": "view",
      "type": "function"
    },
    {
      "constant": false,
      "inputs": [
        {
          "name": "_operators",
          "type": "address[]"
        }
      ],
      "name": "addAddressesToWhitelist",
      "outputs": [],
      "payable": false,
      "stateMutability": "nonpayable",
      "type": "function"
    },
    {
      "constant": false,
      "inputs": [
        {
          "name": "_newOwner",
          "type": "address"
        }
      ],
      "name": "transferOwnership",
      "outputs": [],
      "payable": false,
      "stateMutability": "nonpayable",
      "type": "function"
    },
    {
      "inputs": [],
      "payable": false,
      "stateMutability": "nonpayable",
      "type": "constructor"
    },
    {
      "anonymous": false,
      "inputs": [
        {
          "indexed": true,
          "name": "_id",
          "type": "uint256"
        },
        {
          "indexed": true,
          "name": "_author",
          "type": "address"
        },
        {
          "indexed": false,
          "name": "_name",
          "type": "string"
        },
        {
          "indexed": false,
          "name": "_description",
          "type": "string"
        },
        {
          "indexed": false,
          "name": "_data",
          "type": "string"
        },
        {
          "indexed": false,
          "name": "validation",
          "type": "bool"
        }
      ],
      "name": "LogSendArtw",
      "type": "event"
    },
    {
      "anonymous": false,
      "inputs": [
        {
          "indexed": true,
          "name": "_id",
          "type": "uint256"
        },
        {
          "indexed": true,
          "name": "_author",
          "type": "address"
        }
      ],
      "name": "ValidateArtw",
      "type": "event"
    },
    {
      "anonymous": false,
      "inputs": [
        {
          "indexed": true,
          "name": "operator",
          "type": "address"
        },
        {
          "indexed": false,
          "name": "role",
          "type": "string"
        }
      ],
      "name": "RoleAdded",
      "type": "event"
    },
    {
      "anonymous": false,
      "inputs": [
        {
          "indexed": true,
          "name": "operator",
          "type": "address"
        },
        {
          "indexed": false,
          "name": "role",
          "type": "string"
        }
      ],
      "name": "RoleRemoved",
      "type": "event"
    },
    {
      "anonymous": false,
      "inputs": [
        {
          "indexed": true,
          "name": "previousOwner",
          "type": "address"
        }
      ],
      "name": "OwnershipRenounced",
      "type": "event"
    },
    {
      "anonymous": false,
      "inputs": [
        {
          "indexed": true,
          "name": "previousOwner",
          "type": "address"
        },
        {
          "indexed": true,
          "name": "newOwner",
          "type": "address"
        }
      ],
      "name": "OwnershipTransferred",
      "type": "event"
    },
    {
      "constant": false,
      "inputs": [
        {
          "name": "_name",
          "type": "string"
        },
        {
          "name": "_description",
          "type": "string"
        },
        {
          "name": "_dataHash",
          "type": "string"
        }
      ],
      "name": "publishArtwork",
      "outputs": [],
      "payable": false,
      "stateMutability": "nonpayable",
      "type": "function"
    },
    {
      "constant": false,
      "inputs": [
        {
          "name": "_id",
          "type": "uint256"
        },
        {
          "name": "_author",
          "type": "address"
        },
        {
          "name": "_name",
          "type": "string"
        },
        {
          "name": "_description",
          "type": "string"
        },
        {
          "name": "_dataHash",
          "type": "string"
        },
        {
          "name": "_validation",
          "type": "bool"
        }
      ],
      "name": "addArtwork",
      "outputs": [],
      "payable": false,
      "stateMutability": "nonpayable",
      "type": "function"
    },
    {
      "constant": true,
      "inputs": [],
      "name": "getNumberOfArtworks",
      "outputs": [
        {
          "name": "",
          "type": "uint256"
        }
      ],
      "payable": false,
      "stateMutability": "view",
      "type": "function"
    },
    {
      "constant": true,
      "inputs": [],
      "name": "getArtworks",
      "outputs": [
        {
          "name": "",
          "type": "uint256[]"
        }
      ],
      "payable": false,
      "stateMutability": "view",
      "type": "function"
    },
    {
      "constant": false,
      "inputs": [
        {
          "name": "_id",
          "type": "uint256"
        }
      ],
      "name": "approveArtwork",
      "outputs": [],
      "payable": false,
      "stateMutability": "nonpayable",
      "type": "function"
    }
  ],
  "bytecode": "0x60806040523480156200001157600080fd5b50336000806101000a81548173ffffffffffffffffffffffffffffffffffffffff021916908373ffffffffffffffffffffffffffffffffffffffff1602179055506200014d6001739fb867de1ed00990fcffefc7925846068561ef3c6040805190810160405280601581526020017f4f7065726120642761727465206d696e6f7265203100000000000000000000008152506040805190810160405280601681526020017f4465736372697a696f6e652064656c6c276f7065726100000000000000000000815250606060405190810160405280602e81526020017f516d5646435445534269775045785342596b4135454b4c51314d48574b59473281526020017f55754853785a41576f51484c6845000000000000000000000000000000000000815250600062000275640100000000026401000000009004565b6200026f6002739fb867de1ed00990fcffefc7925846068561ef3c6040805190810160405280601881526020017f496d6d6167696e65206372656174612064612054697a696f0000000000000000815250606060405190810160405280603581526020017f566f676c696f20707265736572766172652071756573746120696d6d6167696e81526020017f652073756c6c6120626c6f636b636861696e2e2e2e0000000000000000000000815250606060405190810160405280602e81526020017f516d5646435445534269775045785342596b4135454b4c51314d48574b59473281526020017f55754853785a41576f51484c6845000000000000000000000000000000000000815250600062000275640100000000026401000000009004565b6200046a565b60036000815480929190600101919050555060c0604051908101604052808781526020018673ffffffffffffffffffffffffffffffffffffffff1681526020018581526020018481526020018381526020018215158152506002600060035481526020019081526020016000206000820151816000015560208201518160010160006101000a81548173ffffffffffffffffffffffffffffffffffffffff021916908373ffffffffffffffffffffffffffffffffffffffff160217905550604082015181600201908051906020019062000351929190620003bb565b50606082015181600301908051906020019062000370929190620003bb565b5060808201518160040190805190602001906200038f929190620003bb565b5060a08201518160050160006101000a81548160ff021916908315150217905550905050505050505050565b828054600181600116156101000203166002900490600052602060002090601f016020900481019282601f10620003fe57805160ff19168380011785556200042f565b828001600101855582156200042f579182015b828111156200042e57825182559160200191906001019062000411565b5b5090506200043e919062000442565b5090565b6200046791905b808211156200046357600081600090555060010162000449565b5090565b90565b611cd2806200047a6000396000f3006080604052600436106100f0576000357c0100000000000000000000000000000000000000000000000000000000900463ffffffff168062a71527146100f55780630988ca8c146101615780630e7a440d146101ea57806318b919e914610217578063217fe6c6146102a757806324953eaa14610348578063286dd3f5146103ae5780634a7848c3146103f15780634b602673146104e6578063715018a6146106a95780637b9417c8146106c05780638da5cb5b146107035780639b19251a1461075a578063e2ec6ec3146107b5578063e37158171461081b578063efbda75214610946578063f2fde38b14610971575b600080fd5b34801561010157600080fd5b5061010a6109b4565b6040518080602001828103825283818151815260200191508051906020019060200280838360005b8381101561014d578082015181840152602081019050610132565b505050509050019250505060405180910390f35b34801561016d57600080fd5b506101e8600480360381019080803573ffffffffffffffffffffffffffffffffffffffff169060200190929190803590602001908201803590602001908080601f0160208091040260200160405190810160405280939291908181526020018383808284378201915050505050509192919290505050610ad9565b005b3480156101f657600080fd5b5061021560048036038101908080359060200190929190505050610b5a565b005b34801561022357600080fd5b5061022c610c11565b6040518080602001828103825283818151815260200191508051906020019080838360005b8381101561026c578082015181840152602081019050610251565b50505050905090810190601f1680156102995780820380516001836020036101000a031916815260200191505b509250505060405180910390f35b3480156102b357600080fd5b5061032e600480360381019080803573ffffffffffffffffffffffffffffffffffffffff169060200190929190803590602001908201803590602001908080601f0160208091040260200160405190810160405280939291908181526020018383808284378201915050505050509192919290505050610c4a565b604051808215151515815260200191505060405180910390f35b34801561035457600080fd5b506103ac60048036038101908080359060200190820180359060200190808060200260200160405190810160405280939291908181526020018383602002808284378201915050505050509192919290505050610cd1565b005b3480156103ba57600080fd5b506103ef600480360381019080803573ffffffffffffffffffffffffffffffffffffffff169060200190929190505050610d6d565b005b3480156103fd57600080fd5b506104e4600480360381019080803590602001908201803590602001908080601f0160208091040260200160405190810160405280939291908181526020018383808284378201915050505050509192919290803590602001908201803590602001908080601f0160208091040260200160405190810160405280939291908181526020018383808284378201915050505050509192919290803590602001908201803590602001908080601f0160208091040260200160405190810160405280939291908181526020018383808284378201915050505050509192919290505050610e0a565b005b3480156104f257600080fd5b50610511600480360381019080803590602001909291905050506110e7565b604051808781526020018673ffffffffffffffffffffffffffffffffffffffff1673ffffffffffffffffffffffffffffffffffffffff16815260200180602001806020018060200185151515158152602001848103845288818151815260200191508051906020019080838360005b8381101561059b578082015181840152602081019050610580565b50505050905090810190601f1680156105c85780820380516001836020036101000a031916815260200191505b50848103835287818151815260200191508051906020019080838360005b838110156106015780820151818401526020810190506105e6565b50505050905090810190601f16801561062e5780820380516001836020036101000a031916815260200191505b50848103825286818151815260200191508051906020019080838360005b8381101561066757808201518184015260208101905061064c565b50505050905090810190601f1680156106945780820380516001836020036101000a031916815260200191505b50995050505050505050505060405180910390f35b3480156106b557600080fd5b506106be611318565b005b3480156106cc57600080fd5b50610701600480360381019080803573ffffffffffffffffffffffffffffffffffffffff16906020019092919050505061141a565b005b34801561070f57600080fd5b506107186114b7565b604051808273ffffffffffffffffffffffffffffffffffffffff1673ffffffffffffffffffffffffffffffffffffffff16815260200191505060405180910390f35b34801561076657600080fd5b5061079b600480360381019080803573ffffffffffffffffffffffffffffffffffffffff1690602001909291905050506114dc565b604051808215151515815260200191505060405180910390f35b3480156107c157600080fd5b5061081960048036038101908080359060200190820180359060200190808060200260200160405190810160405280939291908181526020018383602002808284378201915050505050509192919290505050611524565b005b34801561082757600080fd5b5061094460048036038101908080359060200190929190803573ffffffffffffffffffffffffffffffffffffffff169060200190929190803590602001908201803590602001908080601f0160208091040260200160405190810160405280939291908181526020018383808284378201915050505050509192919290803590602001908201803590602001908080601f0160208091040260200160405190810160405280939291908181526020018383808284378201915050505050509192919290803590602001908201803590602001908080601f01602080910402602001604051908101604052809392919081815260200183838082843782019150505050505091929192908035151590602001909291905050506115c0565b005b34801561095257600080fd5b5061095b611700565b6040518082815260200191505060405180910390f35b34801561097d57600080fd5b506109b2600480360381019080803573ffffffffffffffffffffffffffffffffffffffff16906020019092919050505061170a565b005b606080600080606060006003546040519080825280602002602001820160405280156109ef5781602001602082028038833980820191505090505b50945060009350600192505b60035483111515610a4e5760026000848152602001908152602001600020600001548585815181101515610a2b57fe5b9060200190602002018181525050838060010194505082806001019350506109fb565b83604051908082528060200260200182016040528015610a7d5781602001602082028038833980820191505090505b509150600090505b83811015610ace578481815181101515610a9b57fe5b906020019060200201518282815181101515610ab357fe5b90602001906020020181815250508080600101915050610a85565b819550505050505090565b610b56826001836040518082805190602001908083835b602083101515610b155780518252602082019150602081019050602083039250610af0565b6001836020036101000a038019825116818451168082178552505050505050905001915050908152602001604051809103902061177190919063ffffffff16565b5050565b33610b9a816040805190810160405280600e81526020017f617274776f726b436865636b6572000000000000000000000000000000000000815250610ad9565b60016002600084815260200190815260200160002060050160006101000a81548160ff0219169083151502179055503373ffffffffffffffffffffffffffffffffffffffff16827f0ad40c3a33907c1c9fd5d63f76b8299ddcb956513ff10f6d08280cc9c176bce960405160405180910390a35050565b6040805190810160405280600e81526020017f617274776f726b436865636b657200000000000000000000000000000000000081525081565b6000610cc9836001846040518082805190602001908083835b602083101515610c885780518252602082019150602081019050602083039250610c63565b6001836020036101000a038019825116818451168082178552505050505050905001915050908152602001604051809103902061178a90919063ffffffff16565b905092915050565b60008060009054906101000a900473ffffffffffffffffffffffffffffffffffffffff1673ffffffffffffffffffffffffffffffffffffffff163373ffffffffffffffffffffffffffffffffffffffff16141515610d2e57600080fd5b600090505b8151811015610d6957610d5c8282815181101515610d4d57fe5b90602001906020020151610d6d565b8080600101915050610d33565b5050565b6000809054906101000a900473ffffffffffffffffffffffffffffffffffffffff1673ffffffffffffffffffffffffffffffffffffffff163373ffffffffffffffffffffffffffffffffffffffff16141515610dc857600080fd5b610e07816040805190810160405280600e81526020017f617274776f726b436865636b65720000000000000000000000000000000000008152506117e3565b50565b60036000815480929190600101919050555060c06040519081016040528060035481526020013373ffffffffffffffffffffffffffffffffffffffff168152602001848152602001838152602001828152602001600015158152506002600060035481526020019081526020016000206000820151816000015560208201518160010160006101000a81548173ffffffffffffffffffffffffffffffffffffffff021916908373ffffffffffffffffffffffffffffffffffffffff1602179055506040820151816002019080519060200190610ee7929190611c01565b506060820151816003019080519060200190610f04929190611c01565b506080820151816004019080519060200190610f21929190611c01565b5060a08201518160050160006101000a81548160ff0219169083151502179055509050503373ffffffffffffffffffffffffffffffffffffffff166003547f69b212700b269b6768d30995de959e9b0d7d8d9f709f8f7a83c0221dabfb348585858560006040518080602001806020018060200185151515158152602001848103845288818151815260200191508051906020019080838360005b83811015610fd7578082015181840152602081019050610fbc565b50505050905090810190601f1680156110045780820380516001836020036101000a031916815260200191505b50848103835287818151815260200191508051906020019080838360005b8381101561103d578082015181840152602081019050611022565b50505050905090810190601f16801561106a5780820380516001836020036101000a031916815260200191505b50848103825286818151815260200191508051906020019080838360005b838110156110a3578082015181840152602081019050611088565b50505050905090810190601f1680156110d05780820380516001836020036101000a031916815260200191505b5097505050505050505060405180910390a3505050565b60026020528060005260406000206000915090508060000154908060010160009054906101000a900473ffffffffffffffffffffffffffffffffffffffff1690806002018054600181600116156101000203166002900480601f0160208091040260200160405190810160405280929190818152602001828054600181600116156101000203166002900480156111bf5780601f10611194576101008083540402835291602001916111bf565b820191906000526020600020905b8154815290600101906020018083116111a257829003601f168201915b505050505090806003018054600181600116156101000203166002900480601f01602080910402602001604051908101604052809291908181526020018280546001816001161561010002031660029004801561125d5780601f106112325761010080835404028352916020019161125d565b820191906000526020600020905b81548152906001019060200180831161124057829003601f168201915b505050505090806004018054600181600116156101000203166002900480601f0160208091040260200160405190810160405280929190818152602001828054600181600116156101000203166002900480156112fb5780601f106112d0576101008083540402835291602001916112fb565b820191906000526020600020905b8154815290600101906020018083116112de57829003601f168201915b5050505050908060050160009054906101000a900460ff16905086565b6000809054906101000a900473ffffffffffffffffffffffffffffffffffffffff1673ffffffffffffffffffffffffffffffffffffffff163373ffffffffffffffffffffffffffffffffffffffff1614151561137357600080fd5b6000809054906101000a900473ffffffffffffffffffffffffffffffffffffffff1673ffffffffffffffffffffffffffffffffffffffff167ff8df31144d9c2f0f6b59d69b8b98abd5459d07f2742c4df920b25aae33c6482060405160405180910390a260008060006101000a81548173ffffffffffffffffffffffffffffffffffffffff021916908373ffffffffffffffffffffffffffffffffffffffff160217905550565b6000809054906101000a900473ffffffffffffffffffffffffffffffffffffffff1673ffffffffffffffffffffffffffffffffffffffff163373ffffffffffffffffffffffffffffffffffffffff1614151561147557600080fd5b6114b4816040805190810160405280600e81526020017f617274776f726b436865636b6572000000000000000000000000000000000000815250611917565b50565b6000809054906101000a900473ffffffffffffffffffffffffffffffffffffffff1681565b600061151d826040805190810160405280600e81526020017f617274776f726b436865636b6572000000000000000000000000000000000000815250610c4a565b9050919050565b60008060009054906101000a900473ffffffffffffffffffffffffffffffffffffffff1673ffffffffffffffffffffffffffffffffffffffff163373ffffffffffffffffffffffffffffffffffffffff1614151561158157600080fd5b600090505b81518110156115bc576115af82828151811015156115a057fe5b9060200190602002015161141a565b8080600101915050611586565b5050565b60036000815480929190600101919050555060c0604051908101604052808781526020018673ffffffffffffffffffffffffffffffffffffffff1681526020018581526020018481526020018381526020018215158152506002600060035481526020019081526020016000206000820151816000015560208201518160010160006101000a81548173ffffffffffffffffffffffffffffffffffffffff021916908373ffffffffffffffffffffffffffffffffffffffff160217905550604082015181600201908051906020019061169a929190611c01565b5060608201518160030190805190602001906116b7929190611c01565b5060808201518160040190805190602001906116d4929190611c01565b5060a08201518160050160006101000a81548160ff021916908315150217905550905050505050505050565b6000600354905090565b6000809054906101000a900473ffffffffffffffffffffffffffffffffffffffff1673ffffffffffffffffffffffffffffffffffffffff163373ffffffffffffffffffffffffffffffffffffffff1614151561176557600080fd5b61176e81611a4b565b50565b61177b828261178a565b151561178657600080fd5b5050565b60008260000160008373ffffffffffffffffffffffffffffffffffffffff1673ffffffffffffffffffffffffffffffffffffffff16815260200190815260200160002060009054906101000a900460ff16905092915050565b611860826001836040518082805190602001908083835b60208310151561181f57805182526020820191506020810190506020830392506117fa565b6001836020036101000a0380198251168184511680821785525050505050509050019150509081526020016040518091039020611b4590919063ffffffff16565b8173ffffffffffffffffffffffffffffffffffffffff167fd211483f91fc6eff862467f8de606587a30c8fc9981056f051b897a418df803a826040518080602001828103825283818151815260200191508051906020019080838360005b838110156118d95780820151818401526020810190506118be565b50505050905090810190601f1680156119065780820380516001836020036101000a031916815260200191505b509250505060405180910390a25050565b611994826001836040518082805190602001908083835b602083101515611953578051825260208201915060208101905060208303925061192e565b6001836020036101000a0380198251168184511680821785525050505050509050019150509081526020016040518091039020611ba390919063ffffffff16565b8173ffffffffffffffffffffffffffffffffffffffff167fbfec83d64eaa953f2708271a023ab9ee82057f8f3578d548c1a4ba0b5b700489826040518080602001828103825283818151815260200191508051906020019080838360005b83811015611a0d5780820151818401526020810190506119f2565b50505050905090810190601f168015611a3a5780820380516001836020036101000a031916815260200191505b509250505060405180910390a25050565b600073ffffffffffffffffffffffffffffffffffffffff168173ffffffffffffffffffffffffffffffffffffffff1614151515611a8757600080fd5b8073ffffffffffffffffffffffffffffffffffffffff166000809054906101000a900473ffffffffffffffffffffffffffffffffffffffff1673ffffffffffffffffffffffffffffffffffffffff167f8be0079c531659141344cd1fd0a4f28419497f9722a3daafe3b4186f6b6457e060405160405180910390a3806000806101000a81548173ffffffffffffffffffffffffffffffffffffffff021916908373ffffffffffffffffffffffffffffffffffffffff16021790555050565b60008260000160008373ffffffffffffffffffffffffffffffffffffffff1673ffffffffffffffffffffffffffffffffffffffff16815260200190815260200160002060006101000a81548160ff0219169083151502179055505050565b60018260000160008373ffffffffffffffffffffffffffffffffffffffff1673ffffffffffffffffffffffffffffffffffffffff16815260200190815260200160002060006101000a81548160ff0219169083151502179055505050565b828054600181600116156101000203166002900490600052602060002090601f016020900481019282601f10611c4257805160ff1916838001178555611c70565b82800160010185558215611c70579182015b82811115611c6f578251825591602001919060010190611c54565b5b509050611c7d9190611c81565b5090565b611ca391905b80821115611c9f576000816000905550600101611c87565b5090565b905600a165627a7a723058209673be283bc4a005d471210152e85ddbb05779a89b408a80ce94541ce7dbc3620029",
  "source": "pragma solidity ^0.4.24;\n\n\nimport \"./Whitelist.sol\";\n\ncontract Archives is Whitelist {\n\n    //Struct data type containg all artwork proprieties\n    struct Artwork {\n        uint id;\n        address author;\n        string name;\n        string description;\n        string dataHash;\n        bool validation;\n    }\n\n    //state variables\n    mapping (uint => Artwork) public artworks; //automatically sets a getter\n    //stores the total number of works submitted\n    uint artworkCounter;\n    //hash of the file on ipfs (encrypted location)\n    //string storeHash;\n\n    //events \n\n    event LogSendArtw(\n        uint indexed _id,\n        address indexed _author,\n        string _name,\n        string _description,\n        string _data,\n        bool validation\n    );\n\n    event ValidateArtw(\n        uint indexed _id,\n        address indexed _author\n    );\n\n    //publish an artwork\n    function publishArtwork(string _name, string _description, string _dataHash) public {\n        //new artw\n        artworkCounter++;\n        artworks[artworkCounter] = Artwork(\n            artworkCounter,\n            msg.sender,\n            _name,\n            _description,\n            _dataHash,\n            false\n        );\n\n        emit LogSendArtw(artworkCounter, msg.sender, _name, _description, _dataHash, false);\n    }\n    \n    //adding examples articles when deploying contract\n    constructor() public  {\n        addArtwork(1, 0x9Fb867de1eD00990FCFFefC7925846068561ef3C, \"Opera d'arte minore 1\", \"Descrizione dell'opera\", \"QmVFCTESBiwPExSBYkA5EKLQ1MHWKYG2UuHSxZAWoQHLhE\", false);\n        addArtwork(2, 0x9Fb867de1eD00990FCFFefC7925846068561ef3C, \"Immagine creata da Tizio\", \"Voglio preservare questa immagine sulla blockchain...\", \"QmVFCTESBiwPExSBYkA5EKLQ1MHWKYG2UuHSxZAWoQHLhE\", false);\n    }\n    //testing artworkchecker permissions (not relevant)\n    /*function test() onlyIfWhitelisted(msg.sender) public {\n        addArtwork(3, 0x9Fb867de1eD00990FCFFefC7925846068561ef3C, \"esempio3\", \"descrizione esempio 3\", \"QmVFCTESBiwPExSBYkA5EKLQ1MHWKYG2UuHSxZAWoQHLhE\", true);\n    }*/\n    //manual artwork adding for testing purposes\n    function addArtwork(uint _id, address _author, string _name, string _description, string _dataHash, bool _validation) public {\n        artworkCounter++;\n        artworks[artworkCounter] = Artwork (\n            _id,\n            _author,\n            _name,\n            _description,\n            _dataHash,\n            _validation\n        );\n    }\n\n    //fetch the number of artworks in the contract \n    function getNumberOfArtworks() public view returns(uint) {\n        return artworkCounter;\n    }\n    //display all artworks stored in blockchain\n    function getArtworks() public view returns(uint[]) {\n        //prepare output array, it cannot contain more artworks than we have in the contract\n        uint[] memory artwIds = new uint[](artworkCounter);\n        uint numberOfArtw = 0;\n        //iterate over artworks \n        for(uint i = 1; i <= artworkCounter; i++) {\n            artwIds[numberOfArtw] = artworks[i].id;\n            numberOfArtw++;\n        }\n        //copy the artworks Ids array into smaller displayArt array\n        uint[] memory displayArt = new uint[](numberOfArtw);\n        for(uint j = 0; j < numberOfArtw; j++) {\n            displayArt[j] = artwIds[j];\n        }\n        return displayArt;\n    }\n    //artwork checker can switch the propriety artwork.validation to true\n    function approveArtwork(uint _id) onlyIfWhitelisted(msg.sender) public {\n        artworks[_id].validation = true;\n        emit ValidateArtw(_id, msg.sender);\n    }\n}",
  "sourcePath": "D:\\Blockchain projects\\digitalArchivesProject\\contracts\\Archives.sol",
  "compiler": {
    "name": "solc",
    "version": "0.4.24+commit.e67f0147.Emscripten.clang"
  },
  "schemaVersion": "2.0.1",
  "updatedAt": "2018-08-20T15:56:46.911Z"
}