{
  "contractName": "Archives",
  "abi": [
    {
      "constant": true,
      "inputs": [
        {
          "name": "",
          "type": "uint256"
        }
      ],
      "name": "artworks",
      "outputs": [
        {
          "name": "id",
          "type": "uint256"
        },
        {
          "name": "author",
          "type": "address"
        },
        {
          "name": "name",
          "type": "string"
        },
        {
          "name": "description",
          "type": "string"
        },
        {
          "name": "dataHash",
          "type": "string"
        }
      ],
      "payable": false,
      "stateMutability": "view",
      "type": "function"
    },
    {
      "inputs": [],
      "payable": false,
      "stateMutability": "nonpayable",
      "type": "constructor"
    },
    {
      "anonymous": false,
      "inputs": [
        {
          "indexed": true,
          "name": "_id",
          "type": "uint256"
        },
        {
          "indexed": true,
          "name": "_author",
          "type": "address"
        },
        {
          "indexed": false,
          "name": "_name",
          "type": "string"
        },
        {
          "indexed": false,
          "name": "_description",
          "type": "string"
        },
        {
          "indexed": false,
          "name": "_data",
          "type": "string"
        }
      ],
      "name": "LogSendArtw",
      "type": "event"
    },
    {
      "constant": false,
      "inputs": [
        {
          "name": "_name",
          "type": "string"
        },
        {
          "name": "_description",
          "type": "string"
        },
        {
          "name": "_dataHash",
          "type": "string"
        }
      ],
      "name": "publishArtwork",
      "outputs": [],
      "payable": false,
      "stateMutability": "nonpayable",
      "type": "function"
    },
    {
      "constant": false,
      "inputs": [
        {
          "name": "_x",
          "type": "string"
        }
      ],
      "name": "set",
      "outputs": [],
      "payable": false,
      "stateMutability": "nonpayable",
      "type": "function"
    },
    {
      "constant": true,
      "inputs": [],
      "name": "get",
      "outputs": [
        {
          "name": "",
          "type": "string"
        }
      ],
      "payable": false,
      "stateMutability": "view",
      "type": "function"
    },
    {
      "constant": false,
      "inputs": [
        {
          "name": "_id",
          "type": "uint256"
        },
        {
          "name": "_author",
          "type": "address"
        },
        {
          "name": "_name",
          "type": "string"
        },
        {
          "name": "_description",
          "type": "string"
        },
        {
          "name": "_dataHash",
          "type": "string"
        }
      ],
      "name": "addArtwork",
      "outputs": [],
      "payable": false,
      "stateMutability": "nonpayable",
      "type": "function"
    },
    {
      "constant": true,
      "inputs": [],
      "name": "getNumberOfArtworks",
      "outputs": [
        {
          "name": "",
          "type": "uint256"
        }
      ],
      "payable": false,
      "stateMutability": "view",
      "type": "function"
    },
    {
      "constant": true,
      "inputs": [],
      "name": "getArtworks",
      "outputs": [
        {
          "name": "",
          "type": "uint256[]"
        }
      ],
      "payable": false,
      "stateMutability": "view",
      "type": "function"
    }
  ],
  "bytecode": "0x60806040523480156200001157600080fd5b506200010b6001739fb867de1ed00990fcffefc7925846068561ef3c6040805190810160405280600481526020017f61727431000000000000000000000000000000000000000000000000000000008152506040805190810160405280600581526020017f6465736331000000000000000000000000000000000000000000000000000000815250606060405190810160405280602e81526020017f516d5646435445534269775045785342596b4135454b4c51314d48574b59473281526020017f55754853785a41576f51484c68450000000000000000000000000000000000008152506200020a640100000000026401000000009004565b620002046002739fb867de1ed00990fcffefc7925846068561ef3c6040805190810160405280600481526020017f61727432000000000000000000000000000000000000000000000000000000008152506040805190810160405280600581526020017f6465736332000000000000000000000000000000000000000000000000000000815250606060405190810160405280602e81526020017f516d5646435445534269775045785342596b4135454b4c51314d48574b59473281526020017f55754853785a41576f51484c68450000000000000000000000000000000000008152506200020a640100000000026401000000009004565b620003d5565b60016000815480929190600101919050555060a0604051908101604052808681526020018573ffffffffffffffffffffffffffffffffffffffff1681526020018481526020018381526020018281525060008060015481526020019081526020016000206000820151816000015560208201518160010160006101000a81548173ffffffffffffffffffffffffffffffffffffffff021916908373ffffffffffffffffffffffffffffffffffffffff1602179055506040820151816002019080519060200190620002dd92919062000326565b506060820151816003019080519060200190620002fc92919062000326565b5060808201518160040190805190602001906200031b92919062000326565b509050505050505050565b828054600181600116156101000203166002900490600052602060002090601f016020900481019282601f106200036957805160ff19168380011785556200039a565b828001600101855582156200039a579182015b82811115620003995782518255916020019190600101906200037c565b5b509050620003a99190620003ad565b5090565b620003d291905b80821115620003ce576000816000905550600101620003b4565b5090565b90565b610ef880620003e56000396000f300608060405260043610610082576000357c0100000000000000000000000000000000000000000000000000000000900463ffffffff168062a71527146100875780634a7848c3146100f35780634b602673146101e85780634ed3885e146103a05780636d4ce63c14610409578063e799706914610499578063efbda752146105b8575b600080fd5b34801561009357600080fd5b5061009c6105e3565b6040518080602001828103825283818151815260200191508051906020019060200280838360005b838110156100df5780820151818401526020810190506100c4565b505050509050019250505060405180910390f35b3480156100ff57600080fd5b506101e6600480360381019080803590602001908201803590602001908080601f0160208091040260200160405190810160405280939291908181526020018383808284378201915050505050509192919290803590602001908201803590602001908080601f0160208091040260200160405190810160405280939291908181526020018383808284378201915050505050509192919290803590602001908201803590602001908080601f0160208091040260200160405190810160405280939291908181526020018383808284378201915050505050509192919290505050610707565b005b3480156101f457600080fd5b50610213600480360381019080803590602001909291905050506109ad565b604051808681526020018573ffffffffffffffffffffffffffffffffffffffff1673ffffffffffffffffffffffffffffffffffffffff168152602001806020018060200180602001848103845287818151815260200191508051906020019080838360005b83811015610293578082015181840152602081019050610278565b50505050905090810190601f1680156102c05780820380516001836020036101000a031916815260200191505b50848103835286818151815260200191508051906020019080838360005b838110156102f95780820151818401526020810190506102de565b50505050905090810190601f1680156103265780820380516001836020036101000a031916815260200191505b50848103825285818151815260200191508051906020019080838360005b8381101561035f578082015181840152602081019050610344565b50505050905090810190601f16801561038c5780820380516001836020036101000a031916815260200191505b509850505050505050505060405180910390f35b3480156103ac57600080fd5b50610407600480360381019080803590602001908201803590602001908080601f0160208091040260200160405190810160405280939291908181526020018383808284378201915050505050509192919290505050610bcb565b005b34801561041557600080fd5b5061041e610be5565b6040518080602001828103825283818151815260200191508051906020019080838360005b8381101561045e578082015181840152602081019050610443565b50505050905090810190601f16801561048b5780820380516001836020036101000a031916815260200191505b509250505060405180910390f35b3480156104a557600080fd5b506105b660048036038101908080359060200190929190803573ffffffffffffffffffffffffffffffffffffffff169060200190929190803590602001908201803590602001908080601f0160208091040260200160405190810160405280939291908181526020018383808284378201915050505050509192919290803590602001908201803590602001908080601f0160208091040260200160405190810160405280939291908181526020018383808284378201915050505050509192919290803590602001908201803590602001908080601f0160208091040260200160405190810160405280939291908181526020018383808284378201915050505050509192919290505050610c87565b005b3480156105c457600080fd5b506105cd610d9d565b6040518082815260200191505060405180910390f35b6060806000806060600060015460405190808252806020026020018201604052801561061e5781602001602082028038833980820191505090505b50945060009350600192505b6001548311151561067c5760008084815260200190815260200160002060000154858581518110151561065957fe5b90602001906020020181815250508380600101945050828060010193505061062a565b836040519080825280602002602001820160405280156106ab5781602001602082028038833980820191505090505b509150600090505b838110156106fc5784818151811015156106c957fe5b9060200190602002015182828151811015156106e157fe5b906020019060200201818152505080806001019150506106b3565b819550505050505090565b60016000815480929190600101919050555060a06040519081016040528060015481526020013373ffffffffffffffffffffffffffffffffffffffff1681526020018481526020018381526020018281525060008060015481526020019081526020016000206000820151816000015560208201518160010160006101000a81548173ffffffffffffffffffffffffffffffffffffffff021916908373ffffffffffffffffffffffffffffffffffffffff16021790555060408201518160020190805190602001906107da929190610da7565b5060608201518160030190805190602001906107f7929190610da7565b506080820151816004019080519060200190610814929190610da7565b509050503373ffffffffffffffffffffffffffffffffffffffff166001547fce127743deab7894bb30aad784f63549cabcb5f76430b1171eac9287f05e2c0985858560405180806020018060200180602001848103845287818151815260200191508051906020019080838360005b8381101561089e578082015181840152602081019050610883565b50505050905090810190601f1680156108cb5780820380516001836020036101000a031916815260200191505b50848103835286818151815260200191508051906020019080838360005b838110156109045780820151818401526020810190506108e9565b50505050905090810190601f1680156109315780820380516001836020036101000a031916815260200191505b50848103825285818151815260200191508051906020019080838360005b8381101561096a57808201518184015260208101905061094f565b50505050905090810190601f1680156109975780820380516001836020036101000a031916815260200191505b50965050505050505060405180910390a3505050565b60006020528060005260406000206000915090508060000154908060010160009054906101000a900473ffffffffffffffffffffffffffffffffffffffff1690806002018054600181600116156101000203166002900480601f016020809104026020016040519081016040528092919081815260200182805460018160011615610100020316600290048015610a855780601f10610a5a57610100808354040283529160200191610a85565b820191906000526020600020905b815481529060010190602001808311610a6857829003601f168201915b505050505090806003018054600181600116156101000203166002900480601f016020809104026020016040519081016040528092919081815260200182805460018160011615610100020316600290048015610b235780601f10610af857610100808354040283529160200191610b23565b820191906000526020600020905b815481529060010190602001808311610b0657829003601f168201915b505050505090806004018054600181600116156101000203166002900480601f016020809104026020016040519081016040528092919081815260200182805460018160011615610100020316600290048015610bc15780601f10610b9657610100808354040283529160200191610bc1565b820191906000526020600020905b815481529060010190602001808311610ba457829003601f168201915b5050505050905085565b8060029080519060200190610be1929190610e27565b5050565b606060028054600181600116156101000203166002900480601f016020809104026020016040519081016040528092919081815260200182805460018160011615610100020316600290048015610c7d5780601f10610c5257610100808354040283529160200191610c7d565b820191906000526020600020905b815481529060010190602001808311610c6057829003601f168201915b5050505050905090565b60016000815480929190600101919050555060a0604051908101604052808681526020018573ffffffffffffffffffffffffffffffffffffffff1681526020018481526020018381526020018281525060008060015481526020019081526020016000206000820151816000015560208201518160010160006101000a81548173ffffffffffffffffffffffffffffffffffffffff021916908373ffffffffffffffffffffffffffffffffffffffff1602179055506040820151816002019080519060200190610d58929190610da7565b506060820151816003019080519060200190610d75929190610da7565b506080820151816004019080519060200190610d92929190610da7565b509050505050505050565b6000600154905090565b828054600181600116156101000203166002900490600052602060002090601f016020900481019282601f10610de857805160ff1916838001178555610e16565b82800160010185558215610e16579182015b82811115610e15578251825591602001919060010190610dfa565b5b509050610e239190610ea7565b5090565b828054600181600116156101000203166002900490600052602060002090601f016020900481019282601f10610e6857805160ff1916838001178555610e96565b82800160010185558215610e96579182015b82811115610e95578251825591602001919060010190610e7a565b5b509050610ea39190610ea7565b5090565b610ec991905b80821115610ec5576000816000905550600101610ead565b5090565b905600a165627a7a7230582019364b0c66b8d3a99bb7b32f235fc5be0033a17cbe138592665d50f0effb972b0029",
  "source": "pragma solidity ^0.4.23;\n\ncontract Archives {\n\n    //For more complex data types, Solidity provides: struct\n    struct Artwork {\n        uint id;\n        address author;\n        string name;\n        string description;\n        string dataHash;\n    }\n\n    //state variables\n    mapping (uint => Artwork) public artworks; //automatically sets a getter\n    //stores the total number of works submitted\n    uint artworkCounter;\n    //hash of the file on ipfs (encrypted location)\n    string storeHash;\n\n    //events \n\n    event LogSendArtw(\n        uint indexed _id,\n        address indexed _author,\n        string _name,\n        string _description,\n        string _data\n    );\n\n    //publish an artwork\n    function publishArtwork(string _name, string _description, string _dataHash) public {\n        //new artw\n        artworkCounter++;\n        artworks[artworkCounter] = Artwork(\n            artworkCounter,\n            msg.sender,\n            _name,\n            _description,\n            _dataHash\n        );\n\n        emit LogSendArtw(artworkCounter, msg.sender, _name, _description, _dataHash);\n    }\n\n\n    function set(string _x) public {\n        storeHash = _x;\n    }\n\n    function get() public view returns (string) {\n        return storeHash;\n    }\n    \n    constructor() public  {\n        addArtwork(1, 0x9Fb867de1eD00990FCFFefC7925846068561ef3C, \"art1\", \"desc1\", \"QmVFCTESBiwPExSBYkA5EKLQ1MHWKYG2UuHSxZAWoQHLhE\");\n        addArtwork(2, 0x9Fb867de1eD00990FCFFefC7925846068561ef3C, \"art2\", \"desc2\", \"QmVFCTESBiwPExSBYkA5EKLQ1MHWKYG2UuHSxZAWoQHLhE\");\n    }\n\n    function addArtwork(uint _id, address _author, string _name, string _description, string _dataHash) public {\n        artworkCounter++;\n        artworks[artworkCounter] = Artwork (\n            _id,\n            _author,\n            _name,\n            _description,\n            _dataHash\n        );\n    }\n\n    //fetch the number of artworks in the contract \n    function getNumberOfArtworks() public view returns(uint) {\n        return artworkCounter;\n    }\n\n    function getArtworks() public view returns(uint[]) {\n        //prepare output array, it cannot contain more artworks than we have in the contract\n        uint[] memory artwIds = new uint[](artworkCounter);\n        uint numberOfArtw = 0;\n        //iterate over artworks \n        for(uint i = 1; i <= artworkCounter; i++) {\n            artwIds[numberOfArtw] = artworks[i].id;\n            numberOfArtw++;\n        }\n        //copy the artworks Ids array into smaller displayArt array\n        uint[] memory displayArt = new uint[](numberOfArtw);\n        for(uint j = 0; j < numberOfArtw; j++) {\n            displayArt[j] = artwIds[j];\n        }\n        return displayArt;\n    }\n\n   \n\n}",
  "sourcePath": "D:\\Blockchain projects\\digitalArchivesProject\\contracts\\Archives.sol",
  "compiler": {
    "name": "solc",
    "version": "0.4.24+commit.e67f0147.Emscripten.clang"
  },
  "schemaVersion": "2.0.1",
  "updatedAt": "2018-08-19T12:58:39.615Z"
}